{
  "_format": "hh-sol-artifact-1",
  "contractName": "LumerinVestingMulti",
  "sourceName": "contracts/LumerinVestingMulti.sol",
  "abi": [
    {
      "inputs": [],
      "stateMutability": "nonpayable",
      "type": "constructor"
    },
    {
      "anonymous": false,
      "inputs": [
        {
          "indexed": true,
          "internalType": "address",
          "name": "token",
          "type": "address"
        },
        {
          "indexed": false,
          "internalType": "uint256",
          "name": "amount",
          "type": "uint256"
        }
      ],
      "name": "ERC20Released",
      "type": "event"
    },
    {
      "anonymous": false,
      "inputs": [
        {
          "indexed": false,
          "internalType": "uint256",
          "name": "amount",
          "type": "uint256"
        }
      ],
      "name": "EtherReleased",
      "type": "event"
    },
    {
      "inputs": [],
      "name": "Claim",
      "outputs": [],
      "stateMutability": "nonpayable",
      "type": "function"
    },
    {
      "inputs": [],
      "name": "duration",
      "outputs": [
        {
          "internalType": "uint256",
          "name": "",
          "type": "uint256"
        }
      ],
      "stateMutability": "view",
      "type": "function"
    },
    {
      "inputs": [
        {
          "internalType": "address",
          "name": "_claiment",
          "type": "address"
        }
      ],
      "name": "obtainVestingInformation",
      "outputs": [
        {
          "internalType": "uint256[2]",
          "name": "",
          "type": "uint256[2]"
        }
      ],
      "stateMutability": "view",
      "type": "function"
    },
    {
      "inputs": [],
      "name": "release",
      "outputs": [],
      "stateMutability": "nonpayable",
      "type": "function"
    },
    {
      "inputs": [],
      "name": "released",
      "outputs": [
        {
          "internalType": "uint256",
          "name": "",
          "type": "uint256"
        }
      ],
      "stateMutability": "view",
      "type": "function"
    },
    {
      "inputs": [
        {
          "internalType": "address",
          "name": "_claiment",
          "type": "address"
        },
        {
          "internalType": "uint8",
          "name": "_vestingMonths",
          "type": "uint8"
        },
        {
          "internalType": "uint256",
          "name": "_vestingAmount",
          "type": "uint256"
        }
      ],
      "name": "setAddAddressToVestingSchedule",
      "outputs": [],
      "stateMutability": "nonpayable",
      "type": "function"
    },
    {
      "inputs": [
        {
          "internalType": "address[]",
          "name": "_claiment",
          "type": "address[]"
        },
        {
          "internalType": "uint8[]",
          "name": "_vestingMonths",
          "type": "uint8[]"
        },
        {
          "internalType": "uint256[]",
          "name": "_vestingAmount",
          "type": "uint256[]"
        }
      ],
      "name": "setAddMultiAddressToVestingSchedule",
      "outputs": [],
      "stateMutability": "nonpayable",
      "type": "function"
    },
    {
      "inputs": [
        {
          "internalType": "address",
          "name": "_claiment",
          "type": "address"
        },
        {
          "internalType": "uint256",
          "name": "_value",
          "type": "uint256"
        }
      ],
      "name": "setAddToVestingAmount",
      "outputs": [],
      "stateMutability": "nonpayable",
      "type": "function"
    },
    {
      "inputs": [],
      "name": "start",
      "outputs": [
        {
          "internalType": "uint256",
          "name": "",
          "type": "uint256"
        }
      ],
      "stateMutability": "view",
      "type": "function"
    },
    {
      "inputs": [
        {
          "internalType": "address",
          "name": "_recipient",
          "type": "address"
        },
        {
          "internalType": "uint256",
          "name": "_value",
          "type": "uint256"
        }
      ],
      "name": "transferLumerinOut",
      "outputs": [],
      "stateMutability": "nonpayable",
      "type": "function"
    },
    {
      "inputs": [
        {
          "internalType": "address",
          "name": "claiment",
          "type": "address"
        },
        {
          "internalType": "uint64",
          "name": "timestamp",
          "type": "uint64"
        }
      ],
      "name": "vestedAmount",
      "outputs": [
        {
          "internalType": "uint256",
          "name": "",
          "type": "uint256"
        }
      ],
      "stateMutability": "view",
      "type": "function"
    },
    {
      "inputs": [
        {
          "internalType": "address",
          "name": "_claiment",
          "type": "address"
        }
      ],
      "name": "zeroOutClaimentValues",
      "outputs": [],
      "stateMutability": "nonpayable",
      "type": "function"
    }
  ],
  "bytecode": "0x60806040526000600660106101000a81548160ff0219169083151502179055506040518060800160405280636292632063ffffffff1681526020016362bb41a063ffffffff1681526020016362e2cea063ffffffff16815260200163630bad2063ffffffff1681525060079060046200007a929190620004be565b506040518060200160405280636292632063ffffffff168152506008906001620000a692919062000518565b506040518061018001604052806362bb41a063ffffffff1681526020016362e2cea063ffffffff16815260200163630bad2063ffffffff1681526020016363348ba063ffffffff16815260200163635c18a063ffffffff168152602001636385053063ffffffff1681526020016363ac923063ffffffff1681526020016363d570b063ffffffff1681526020016363fe4f3063ffffffff1681526020016364232b2063ffffffff16815260200163644c09a063ffffffff16815260200163647396a063ffffffff16815250600990600c6200018392919062000572565b506040518061030001604052806363348ba063ffffffff16815260200163635c18a063ffffffff168152602001636385053063ffffffff1681526020016363ac923063ffffffff1681526020016363d570b063ffffffff1681526020016363fe4f3063ffffffff1681526020016364232b2063ffffffff16815260200163644c09a063ffffffff16815260200163647396a063ffffffff16815260200163649c752063ffffffff1681526020016364c4022063ffffffff1681526020016364ece0a063ffffffff168152602001636515bf2063ffffffff16815260200163653d4c2063ffffffff16815260200163656638b063ffffffff16815260200163658dc5b063ffffffff1681526020016365b6a43063ffffffff1681526020016365df82b063ffffffff168152602001636605b02063ffffffff16815260200163662e8ea063ffffffff1681526020016366561ba063ffffffff16815260200163667efa2063ffffffff1681526020016366a6872063ffffffff1681526020016366cf65a063ffffffff16815250600a90601862000320929190620005cc565b50734b1d0b9f081468d780ca1d5d79132b64301085d1600b60006101000a81548173ffffffffffffffffffffffffffffffffffffffff021916908373ffffffffffffffffffffffffffffffffffffffff160217905550735846f9a299e78b78b9e4104b5a10e3915a0fae3d600d60006101000a81548173ffffffffffffffffffffffffffffffffffffffff021916908373ffffffffffffffffffffffffffffffffffffffff160217905550736161ef0ce79322082a51b34def2bcd0b0b8062d9600e60006101000a81548173ffffffffffffffffffffffffffffffffffffffff021916908373ffffffffffffffffffffffffffffffffffffffff1602179055503480156200042d57600080fd5b50600b60009054906101000a900473ffffffffffffffffffffffffffffffffffffffff16600160009054906101000a900473ffffffffffffffffffffffffffffffffffffffff1690505033600c60006101000a81548173ffffffffffffffffffffffffffffffffffffffff021916908373ffffffffffffffffffffffffffffffffffffffff16021790555062000645565b82805482825590600052602060002090810192821562000505579160200282015b8281111562000504578251829063ffffffff16905591602001919060010190620004df565b5b50905062000514919062000626565b5090565b8280548282559060005260206000209081019282156200055f579160200282015b828111156200055e578251829063ffffffff1690559160200191906001019062000539565b5b5090506200056e919062000626565b5090565b828054828255906000526020600020908101928215620005b9579160200282015b82811115620005b8578251829063ffffffff1690559160200191906001019062000593565b5b509050620005c8919062000626565b5090565b82805482825590600052602060002090810192821562000613579160200282015b8281111562000612578251829063ffffffff16905591602001919060010190620005ed565b5b50905062000622919062000626565b5090565b5b808211156200064157600081600090555060010162000627565b5090565b61210780620006556000396000f3fe608060405234801561001057600080fd5b50600436106100b45760003560e01c806396132521116100715780639613252114610153578063985bf84c14610171578063be9a6555146101a1578063c15ad572146101bf578063e0ad9d22146101db578063f880c11b146101f7576100b4565b80630fb5a6b4146100b957806324c41f93146100d75780633158952e146100f3578063755a7df1146100fd578063810ec23b1461011957806386d1a69f14610149575b600080fd5b6100c1610213565b6040516100ce9190611435565b60405180910390f35b6100f160048036038101906100ec9190611527565b61023b565b005b6100fb6104b9565b005b6101176004803603810190610112919061157a565b6104c3565b005b610133600480360381019061012e91906115fa565b610634565b6040516101409190611435565b60405180910390f35b610151610687565b005b61015b61079d565b6040516101689190611435565b60405180910390f35b61018b6004803603810190610186919061163a565b6107e4565b6040516101989190611712565b60405180910390f35b6101a96108be565b6040516101b69190611435565b60405180910390f35b6101d960048036038101906101d49190611a0c565b6108e6565b005b6101f560048036038101906101f0919061163a565b610aa4565b005b610211600480360381019061020c919061157a565b610c71565b005b6000600660089054906101000a900467ffffffffffffffff1667ffffffffffffffff16905090565b600c60009054906101000a900473ffffffffffffffffffffffffffffffffffffffff1673ffffffffffffffffffffffffffffffffffffffff163373ffffffffffffffffffffffffffffffffffffffff1614806102e45750600d60009054906101000a900473ffffffffffffffffffffffffffffffffffffffff1673ffffffffffffffffffffffffffffffffffffffff163373ffffffffffffffffffffffffffffffffffffffff16145b8061033c5750600e60009054906101000a900473ffffffffffffffffffffffffffffffffffffffff1673ffffffffffffffffffffffffffffffffffffffff163373ffffffffffffffffffffffffffffffffffffffff16145b61037b576040517f08c379a000000000000000000000000000000000000000000000000000000000815260040161037290611b36565b60405180910390fd5b80600260008573ffffffffffffffffffffffffffffffffffffffff1673ffffffffffffffffffffffffffffffffffffffff168152602001908152602001600020819055506000600360008573ffffffffffffffffffffffffffffffffffffffff1673ffffffffffffffffffffffffffffffffffffffff1681526020019081526020016000208190555081600460008573ffffffffffffffffffffffffffffffffffffffff1673ffffffffffffffffffffffffffffffffffffffff16815260200190815260200160002060006101000a81548160ff021916908360ff1602179055506000600560008573ffffffffffffffffffffffffffffffffffffffff1673ffffffffffffffffffffffffffffffffffffffff16815260200190815260200160002060006101000a81548160ff021916908315150217905550505050565b6104c1610687565b565b600c60009054906101000a900473ffffffffffffffffffffffffffffffffffffffff1673ffffffffffffffffffffffffffffffffffffffff163373ffffffffffffffffffffffffffffffffffffffff16148061056c5750600d60009054906101000a900473ffffffffffffffffffffffffffffffffffffffff1673ffffffffffffffffffffffffffffffffffffffff163373ffffffffffffffffffffffffffffffffffffffff16145b806105c45750600e60009054906101000a900473ffffffffffffffffffffffffffffffffffffffff1673ffffffffffffffffffffffffffffffffffffffff163373ffffffffffffffffffffffffffffffffffffffff16145b610603576040517f08c379a00000000000000000000000000000000000000000000000000000000081526004016105fa90611b36565b60405180910390fd5b610630600b60009054906101000a900473ffffffffffffffffffffffffffffffffffffffff168383610cb9565b5050565b600061067f600260008573ffffffffffffffffffffffffffffffffffffffff1673ffffffffffffffffffffffffffffffffffffffff1681526020019081526020016000205483610d3f565b905092915050565b600061069161079d565b61069b3342610634565b6106a59190611b85565b905080600360003373ffffffffffffffffffffffffffffffffffffffff1673ffffffffffffffffffffffffffffffffffffffff16815260200190815260200160002060008282546106f69190611bb9565b92505081905550600160009054906101000a900473ffffffffffffffffffffffffffffffffffffffff1673ffffffffffffffffffffffffffffffffffffffff167fc0e523490dd523c33b1878c9eb14ff46991e3f5b2cd33710918618f2a39cba1b826040516107659190611435565b60405180910390a261079a600160009054906101000a900473ffffffffffffffffffffffffffffffffffffffff163383610cb9565b50565b6000600360003373ffffffffffffffffffffffffffffffffffffffff1673ffffffffffffffffffffffffffffffffffffffff16815260200190815260200160002054905090565b6107ec6113fa565b60006107f661079d565b6108008442610634565b61080a9190611b85565b90506000600360008573ffffffffffffffffffffffffffffffffffffffff1673ffffffffffffffffffffffffffffffffffffffff16815260200190815260200160002054600260008673ffffffffffffffffffffffffffffffffffffffff1673ffffffffffffffffffffffffffffffffffffffff168152602001908152602001600020546108989190611b85565b905060006040518060400160405280848152602001838152509050809350505050919050565b6000600660009054906101000a900467ffffffffffffffff1667ffffffffffffffff16905090565b600c60009054906101000a900473ffffffffffffffffffffffffffffffffffffffff1673ffffffffffffffffffffffffffffffffffffffff163373ffffffffffffffffffffffffffffffffffffffff16148061098f5750600d60009054906101000a900473ffffffffffffffffffffffffffffffffffffffff1673ffffffffffffffffffffffffffffffffffffffff163373ffffffffffffffffffffffffffffffffffffffff16145b806109e75750600e60009054906101000a900473ffffffffffffffffffffffffffffffffffffffff1673ffffffffffffffffffffffffffffffffffffffff163373ffffffffffffffffffffffffffffffffffffffff16145b610a26576040517f08c379a0000000000000000000000000000000000000000000000000000000008152600401610a1d90611b36565b60405180910390fd5b60005b8351811015610a9e57610a8b848281518110610a4857610a47611c0f565b5b6020026020010151848381518110610a6357610a62611c0f565b5b6020026020010151848481518110610a7e57610a7d611c0f565b5b602002602001015161023b565b8080610a9690611c3e565b915050610a29565b50505050565b600c60009054906101000a900473ffffffffffffffffffffffffffffffffffffffff1673ffffffffffffffffffffffffffffffffffffffff163373ffffffffffffffffffffffffffffffffffffffff161480610b4d5750600d60009054906101000a900473ffffffffffffffffffffffffffffffffffffffff1673ffffffffffffffffffffffffffffffffffffffff163373ffffffffffffffffffffffffffffffffffffffff16145b80610ba55750600e60009054906101000a900473ffffffffffffffffffffffffffffffffffffffff1673ffffffffffffffffffffffffffffffffffffffff163373ffffffffffffffffffffffffffffffffffffffff16145b610be4576040517f08c379a0000000000000000000000000000000000000000000000000000000008152600401610bdb90611b36565b60405180910390fd5b6000600260008373ffffffffffffffffffffffffffffffffffffffff1673ffffffffffffffffffffffffffffffffffffffff168152602001908152602001600020819055506000600360008373ffffffffffffffffffffffffffffffffffffffff1673ffffffffffffffffffffffffffffffffffffffff1681526020019081526020016000208190555050565b80600260008473ffffffffffffffffffffffffffffffffffffffff1673ffffffffffffffffffffffffffffffffffffffff168152602001908152602001600020819055505050565b610d3a8363a9059cbb60e01b8484604051602401610cd8929190611c96565b604051602081830303815290604052907bffffffffffffffffffffffffffffffffffffffffffffffffffffffff19166020820180517bffffffffffffffffffffffffffffffffffffffffffffffffffffffff838183161783525050505061117d565b505050565b6000801515600560003373ffffffffffffffffffffffffffffffffffffffff1673ffffffffffffffffffffffffffffffffffffffff16815260200190815260200160002060009054906101000a900460ff16151514610dd3576040517f08c379a0000000000000000000000000000000000000000000000000000000008152600401610dca90611d0b565b60405180910390fd5b60606001600460003373ffffffffffffffffffffffffffffffffffffffff1673ffffffffffffffffffffffffffffffffffffffff16815260200190815260200160002060009054906101000a900460ff1660ff161415610e85576007805480602002602001604051908101604052809291908181526020018280548015610e7957602002820191906000526020600020905b815481526020019060010190808311610e65575b50505050509050611093565b6002600460003373ffffffffffffffffffffffffffffffffffffffff1673ffffffffffffffffffffffffffffffffffffffff16815260200190815260200160002060009054906101000a900460ff1660ff161415610f35576008805480602002602001604051908101604052809291908181526020018280548015610f2957602002820191906000526020600020905b815481526020019060010190808311610f15575b50505050509050611092565b6003600460003373ffffffffffffffffffffffffffffffffffffffff1673ffffffffffffffffffffffffffffffffffffffff16815260200190815260200160002060009054906101000a900460ff1660ff161415610fe5576009805480602002602001604051908101604052809291908181526020018280548015610fd957602002820191906000526020600020905b815481526020019060010190808311610fc5575b50505050509050611091565b60048060003373ffffffffffffffffffffffffffffffffffffffff1673ffffffffffffffffffffffffffffffffffffffff16815260200190815260200160002060009054906101000a900460ff1660ff16141561109057600a80548060200260200160405190810160405280929190818152602001828054801561108857602002820191906000526020600020905b815481526020019060010190808311611074575b505050505090505b5b5b5b806000815181106110a7576110a6611c0f565b5b60200260200101518367ffffffffffffffff1610156110ca576000915050611177565b80600182516110d99190611b85565b815181106110ea576110e9611c0f565b5b60200260200101518367ffffffffffffffff161061110b5783915050611177565b60005b815181108015611142575081818151811061112c5761112b611c0f565b5b60200260200101518467ffffffffffffffff1610155b1561115a57808061115290611c3e565b91505061110e565b815181866111689190611d2b565b6111729190611db4565b925050505b92915050565b60006111df826040518060400160405280602081526020017f5361666545524332303a206c6f772d6c6576656c2063616c6c206661696c65648152508573ffffffffffffffffffffffffffffffffffffffff166112449092919063ffffffff16565b905060008151111561123f57808060200190518101906111ff9190611e1d565b61123e576040517f08c379a000000000000000000000000000000000000000000000000000000000815260040161123590611ebc565b60405180910390fd5b5b505050565b6060611253848460008561125c565b90509392505050565b6060824710156112a1576040517f08c379a000000000000000000000000000000000000000000000000000000000815260040161129890611f4e565b60405180910390fd5b6112aa85611370565b6112e9576040517f08c379a00000000000000000000000000000000000000000000000000000000081526004016112e090611fba565b60405180910390fd5b6000808673ffffffffffffffffffffffffffffffffffffffff1685876040516113129190612054565b60006040518083038185875af1925050503d806000811461134f576040519150601f19603f3d011682016040523d82523d6000602084013e611354565b606091505b5091509150611364828286611393565b92505050949350505050565b6000808273ffffffffffffffffffffffffffffffffffffffff163b119050919050565b606083156113a3578290506113f3565b6000835111156113b65782518084602001fd5b816040517f08c379a00000000000000000000000000000000000000000000000000000000081526004016113ea91906120af565b60405180910390fd5b9392505050565b6040518060400160405280600290602082028036833780820191505090505090565b6000819050919050565b61142f8161141c565b82525050565b600060208201905061144a6000830184611426565b92915050565b6000604051905090565b600080fd5b600080fd5b600073ffffffffffffffffffffffffffffffffffffffff82169050919050565b600061148f82611464565b9050919050565b61149f81611484565b81146114aa57600080fd5b50565b6000813590506114bc81611496565b92915050565b600060ff82169050919050565b6114d8816114c2565b81146114e357600080fd5b50565b6000813590506114f5816114cf565b92915050565b6115048161141c565b811461150f57600080fd5b50565b600081359050611521816114fb565b92915050565b6000806000606084860312156115405761153f61145a565b5b600061154e868287016114ad565b935050602061155f868287016114e6565b925050604061157086828701611512565b9150509250925092565b600080604083850312156115915761159061145a565b5b600061159f858286016114ad565b92505060206115b085828601611512565b9150509250929050565b600067ffffffffffffffff82169050919050565b6115d7816115ba565b81146115e257600080fd5b50565b6000813590506115f4816115ce565b92915050565b600080604083850312156116115761161061145a565b5b600061161f858286016114ad565b9250506020611630858286016115e5565b9150509250929050565b6000602082840312156116505761164f61145a565b5b600061165e848285016114ad565b91505092915050565b600060029050919050565b600081905092915050565b6000819050919050565b6116908161141c565b82525050565b60006116a28383611687565b60208301905092915050565b6000602082019050919050565b6116c481611667565b6116ce8184611672565b92506116d98261167d565b8060005b8381101561170a5781516116f18782611696565b96506116fc836116ae565b9250506001810190506116dd565b505050505050565b600060408201905061172760008301846116bb565b92915050565b600080fd5b6000601f19601f8301169050919050565b7f4e487b7100000000000000000000000000000000000000000000000000000000600052604160045260246000fd5b61177b82611732565b810181811067ffffffffffffffff8211171561179a57611799611743565b5b80604052505050565b60006117ad611450565b90506117b98282611772565b919050565b600067ffffffffffffffff8211156117d9576117d8611743565b5b602082029050602081019050919050565b600080fd5b60006118026117fd846117be565b6117a3565b90508083825260208201905060208402830185811115611825576118246117ea565b5b835b8181101561184e578061183a88826114ad565b845260208401935050602081019050611827565b5050509392505050565b600082601f83011261186d5761186c61172d565b5b813561187d8482602086016117ef565b91505092915050565b600067ffffffffffffffff8211156118a1576118a0611743565b5b602082029050602081019050919050565b60006118c56118c084611886565b6117a3565b905080838252602082019050602084028301858111156118e8576118e76117ea565b5b835b8181101561191157806118fd88826114e6565b8452602084019350506020810190506118ea565b5050509392505050565b600082601f8301126119305761192f61172d565b5b81356119408482602086016118b2565b91505092915050565b600067ffffffffffffffff82111561196457611963611743565b5b602082029050602081019050919050565b600061198861198384611949565b6117a3565b905080838252602082019050602084028301858111156119ab576119aa6117ea565b5b835b818110156119d457806119c08882611512565b8452602084019350506020810190506119ad565b5050509392505050565b600082601f8301126119f3576119f261172d565b5b8135611a03848260208601611975565b91505092915050565b600080600060608486031215611a2557611a2461145a565b5b600084013567ffffffffffffffff811115611a4357611a4261145f565b5b611a4f86828701611858565b935050602084013567ffffffffffffffff811115611a7057611a6f61145f565b5b611a7c8682870161191b565b925050604084013567ffffffffffffffff811115611a9d57611a9c61145f565b5b611aa9868287016119de565b9150509250925092565b600082825260208201905092915050565b7f796f7520617265206e6f7420617574686f72697a656420746f2063616c6c207460008201527f6869732066756e6374696f6e0000000000000000000000000000000000000000602082015250565b6000611b20602c83611ab3565b9150611b2b82611ac4565b604082019050919050565b60006020820190508181036000830152611b4f81611b13565b9050919050565b7f4e487b7100000000000000000000000000000000000000000000000000000000600052601160045260246000fd5b6000611b908261141c565b9150611b9b8361141c565b925082821015611bae57611bad611b56565b5b828203905092915050565b6000611bc48261141c565b9150611bcf8361141c565b9250827fffffffffffffffffffffffffffffffffffffffffffffffffffffffffffffffff03821115611c0457611c03611b56565b5b828201905092915050565b7f4e487b7100000000000000000000000000000000000000000000000000000000600052603260045260246000fd5b6000611c498261141c565b91507fffffffffffffffffffffffffffffffffffffffffffffffffffffffffffffffff821415611c7c57611c7b611b56565b5b600182019050919050565b611c9081611484565b82525050565b6000604082019050611cab6000830185611c87565b611cb86020830184611426565b9392505050565b7f76657374696e6720696e2070726f677265737300000000000000000000000000600082015250565b6000611cf5601383611ab3565b9150611d0082611cbf565b602082019050919050565b60006020820190508181036000830152611d2481611ce8565b9050919050565b6000611d368261141c565b9150611d418361141c565b9250817fffffffffffffffffffffffffffffffffffffffffffffffffffffffffffffffff0483118215151615611d7a57611d79611b56565b5b828202905092915050565b7f4e487b7100000000000000000000000000000000000000000000000000000000600052601260045260246000fd5b6000611dbf8261141c565b9150611dca8361141c565b925082611dda57611dd9611d85565b5b828204905092915050565b60008115159050919050565b611dfa81611de5565b8114611e0557600080fd5b50565b600081519050611e1781611df1565b92915050565b600060208284031215611e3357611e3261145a565b5b6000611e4184828501611e08565b91505092915050565b7f5361666545524332303a204552433230206f7065726174696f6e20646964206e60008201527f6f74207375636365656400000000000000000000000000000000000000000000602082015250565b6000611ea6602a83611ab3565b9150611eb182611e4a565b604082019050919050565b60006020820190508181036000830152611ed581611e99565b9050919050565b7f416464726573733a20696e73756666696369656e742062616c616e636520666f60008201527f722063616c6c0000000000000000000000000000000000000000000000000000602082015250565b6000611f38602683611ab3565b9150611f4382611edc565b604082019050919050565b60006020820190508181036000830152611f6781611f2b565b9050919050565b7f416464726573733a2063616c6c20746f206e6f6e2d636f6e7472616374000000600082015250565b6000611fa4601d83611ab3565b9150611faf82611f6e565b602082019050919050565b60006020820190508181036000830152611fd381611f97565b9050919050565b600081519050919050565b600081905092915050565b60005b8381101561200e578082015181840152602081019050611ff3565b8381111561201d576000848401525b50505050565b600061202e82611fda565b6120388185611fe5565b9350612048818560208601611ff0565b80840191505092915050565b60006120608284612023565b915081905092915050565b600081519050919050565b60006120818261206b565b61208b8185611ab3565b935061209b818560208601611ff0565b6120a481611732565b840191505092915050565b600060208201905081810360008301526120c98184612076565b90509291505056fea2646970667358221220d5a497299ea5ec009b2a601200ca76e9df6892dccc9da42985b5ff43e658f05264736f6c63430008090033",
  "linkReferences": {},
  "deployedLinkReferences": {}
}