{
  "_format": "hh-sol-artifact-1",
  "contractName": "VestingWalletMulti",
  "sourceName": "contracts/VestingWalletMulti.sol",
  "abi": [
    {
      "inputs": [
        {
          "internalType": "address",
          "name": "_lumerin",
          "type": "address"
        }
      ],
      "stateMutability": "nonpayable",
      "type": "constructor"
    },
    {
      "anonymous": false,
      "inputs": [
        {
          "indexed": true,
          "internalType": "address",
          "name": "token",
          "type": "address"
        },
        {
          "indexed": false,
          "internalType": "uint256",
          "name": "amount",
          "type": "uint256"
        }
      ],
      "name": "ERC20Released",
      "type": "event"
    },
    {
      "anonymous": false,
      "inputs": [
        {
          "indexed": false,
          "internalType": "uint256",
          "name": "amount",
          "type": "uint256"
        }
      ],
      "name": "EtherReleased",
      "type": "event"
    },
    {
      "inputs": [],
      "name": "duration",
      "outputs": [
        {
          "internalType": "uint256",
          "name": "",
          "type": "uint256"
        }
      ],
      "stateMutability": "view",
      "type": "function"
    },
    {
      "inputs": [],
      "name": "release",
      "outputs": [],
      "stateMutability": "nonpayable",
      "type": "function"
    },
    {
      "inputs": [],
      "name": "released",
      "outputs": [
        {
          "internalType": "uint256",
          "name": "",
          "type": "uint256"
        }
      ],
      "stateMutability": "view",
      "type": "function"
    },
    {
      "inputs": [
        {
          "internalType": "address",
          "name": "_claiment",
          "type": "address"
        },
        {
          "internalType": "uint256",
          "name": "_value",
          "type": "uint256"
        }
      ],
      "name": "setAddToVestingAmount",
      "outputs": [],
      "stateMutability": "nonpayable",
      "type": "function"
    },
    {
      "inputs": [],
      "name": "start",
      "outputs": [
        {
          "internalType": "uint256",
          "name": "",
          "type": "uint256"
        }
      ],
      "stateMutability": "view",
      "type": "function"
    },
    {
      "inputs": [
        {
          "internalType": "address",
          "name": "claiment",
          "type": "address"
        },
        {
          "internalType": "uint64",
          "name": "timestamp",
          "type": "uint64"
        }
      ],
      "name": "vestedAmount",
      "outputs": [
        {
          "internalType": "uint256",
          "name": "",
          "type": "uint256"
        }
      ],
      "stateMutability": "view",
      "type": "function"
    }
  ],
  "bytecode": "0x60806040526000600660106101000a81548160ff02191690831515021790555034801561002b57600080fd5b50604051610e85380380610e85833981810160405281019061004d91906100db565b600160009054906101000a900473ffffffffffffffffffffffffffffffffffffffff16905050610108565b600080fd5b600073ffffffffffffffffffffffffffffffffffffffff82169050919050565b60006100a88261007d565b9050919050565b6100b88161009d565b81146100c357600080fd5b50565b6000815190506100d5816100af565b92915050565b6000602082840312156100f1576100f0610078565b5b60006100ff848285016100c6565b91505092915050565b610d6e806101176000396000f3fe608060405234801561001057600080fd5b50600436106100625760003560e01c80630fb5a6b414610067578063810ec23b1461008557806386d1a69f146100b557806396132521146100bf578063be9a6555146100dd578063f880c11b146100fb575b600080fd5b61006f610117565b60405161007c9190610715565b60405180910390f35b61009f600480360381019061009a91906107d3565b61013f565b6040516100ac9190610715565b60405180910390f35b6100bd610192565b005b6100c76102a8565b6040516100d49190610715565b60405180910390f35b6100e56102ef565b6040516100f29190610715565b60405180910390f35b6101156004803603810190610110919061083f565b610317565b005b6000600660089054906101000a900467ffffffffffffffff1667ffffffffffffffff16905090565b600061018a600260008573ffffffffffffffffffffffffffffffffffffffff1673ffffffffffffffffffffffffffffffffffffffff168152602001908152602001600020548361035f565b905092915050565b600061019c6102a8565b6101a6334261013f565b6101b091906108ae565b905080600360003373ffffffffffffffffffffffffffffffffffffffff1673ffffffffffffffffffffffffffffffffffffffff168152602001908152602001600020600082825461020191906108e2565b92505081905550600160009054906101000a900473ffffffffffffffffffffffffffffffffffffffff1673ffffffffffffffffffffffffffffffffffffffff167fc0e523490dd523c33b1878c9eb14ff46991e3f5b2cd33710918618f2a39cba1b826040516102709190610715565b60405180910390a26102a5600160009054906101000a900473ffffffffffffffffffffffffffffffffffffffff1633836103f9565b50565b6000600360003373ffffffffffffffffffffffffffffffffffffffff1673ffffffffffffffffffffffffffffffffffffffff16815260200190815260200160002054905090565b6000600660009054906101000a900467ffffffffffffffff1667ffffffffffffffff16905090565b80600260008473ffffffffffffffffffffffffffffffffffffffff1673ffffffffffffffffffffffffffffffffffffffff168152602001908152602001600020819055505050565b60006103696102ef565b8267ffffffffffffffff16101561038357600090506103f3565b61038b610117565b6103936102ef565b61039d91906108e2565b8267ffffffffffffffff1611156103b6578290506103f3565b6103be610117565b6103c66102ef565b8367ffffffffffffffff166103db91906108ae565b846103e69190610938565b6103f091906109c1565b90505b92915050565b61047a8363a9059cbb60e01b8484604051602401610418929190610a01565b604051602081830303815290604052907bffffffffffffffffffffffffffffffffffffffffffffffffffffffff19166020820180517bffffffffffffffffffffffffffffffffffffffffffffffffffffffff838183161783525050505061047f565b505050565b60006104e1826040518060400160405280602081526020017f5361666545524332303a206c6f772d6c6576656c2063616c6c206661696c65648152508573ffffffffffffffffffffffffffffffffffffffff166105469092919063ffffffff16565b905060008151111561054157808060200190518101906105019190610a62565b610540576040517f08c379a000000000000000000000000000000000000000000000000000000000815260040161053790610b12565b60405180910390fd5b5b505050565b6060610555848460008561055e565b90509392505050565b6060824710156105a3576040517f08c379a000000000000000000000000000000000000000000000000000000000815260040161059a90610ba4565b60405180910390fd5b6105ac85610672565b6105eb576040517f08c379a00000000000000000000000000000000000000000000000000000000081526004016105e290610c10565b60405180910390fd5b6000808673ffffffffffffffffffffffffffffffffffffffff1685876040516106149190610caa565b60006040518083038185875af1925050503d8060008114610651576040519150601f19603f3d011682016040523d82523d6000602084013e610656565b606091505b5091509150610666828286610695565b92505050949350505050565b6000808273ffffffffffffffffffffffffffffffffffffffff163b119050919050565b606083156106a5578290506106f5565b6000835111156106b85782518084602001fd5b816040517f08c379a00000000000000000000000000000000000000000000000000000000081526004016106ec9190610d16565b60405180910390fd5b9392505050565b6000819050919050565b61070f816106fc565b82525050565b600060208201905061072a6000830184610706565b92915050565b600080fd5b600073ffffffffffffffffffffffffffffffffffffffff82169050919050565b600061076082610735565b9050919050565b61077081610755565b811461077b57600080fd5b50565b60008135905061078d81610767565b92915050565b600067ffffffffffffffff82169050919050565b6107b081610793565b81146107bb57600080fd5b50565b6000813590506107cd816107a7565b92915050565b600080604083850312156107ea576107e9610730565b5b60006107f88582860161077e565b9250506020610809858286016107be565b9150509250929050565b61081c816106fc565b811461082757600080fd5b50565b60008135905061083981610813565b92915050565b6000806040838503121561085657610855610730565b5b60006108648582860161077e565b92505060206108758582860161082a565b9150509250929050565b7f4e487b7100000000000000000000000000000000000000000000000000000000600052601160045260246000fd5b60006108b9826106fc565b91506108c4836106fc565b9250828210156108d7576108d661087f565b5b828203905092915050565b60006108ed826106fc565b91506108f8836106fc565b9250827fffffffffffffffffffffffffffffffffffffffffffffffffffffffffffffffff0382111561092d5761092c61087f565b5b828201905092915050565b6000610943826106fc565b915061094e836106fc565b9250817fffffffffffffffffffffffffffffffffffffffffffffffffffffffffffffffff04831182151516156109875761098661087f565b5b828202905092915050565b7f4e487b7100000000000000000000000000000000000000000000000000000000600052601260045260246000fd5b60006109cc826106fc565b91506109d7836106fc565b9250826109e7576109e6610992565b5b828204905092915050565b6109fb81610755565b82525050565b6000604082019050610a1660008301856109f2565b610a236020830184610706565b9392505050565b60008115159050919050565b610a3f81610a2a565b8114610a4a57600080fd5b50565b600081519050610a5c81610a36565b92915050565b600060208284031215610a7857610a77610730565b5b6000610a8684828501610a4d565b91505092915050565b600082825260208201905092915050565b7f5361666545524332303a204552433230206f7065726174696f6e20646964206e60008201527f6f74207375636365656400000000000000000000000000000000000000000000602082015250565b6000610afc602a83610a8f565b9150610b0782610aa0565b604082019050919050565b60006020820190508181036000830152610b2b81610aef565b9050919050565b7f416464726573733a20696e73756666696369656e742062616c616e636520666f60008201527f722063616c6c0000000000000000000000000000000000000000000000000000602082015250565b6000610b8e602683610a8f565b9150610b9982610b32565b604082019050919050565b60006020820190508181036000830152610bbd81610b81565b9050919050565b7f416464726573733a2063616c6c20746f206e6f6e2d636f6e7472616374000000600082015250565b6000610bfa601d83610a8f565b9150610c0582610bc4565b602082019050919050565b60006020820190508181036000830152610c2981610bed565b9050919050565b600081519050919050565b600081905092915050565b60005b83811015610c64578082015181840152602081019050610c49565b83811115610c73576000848401525b50505050565b6000610c8482610c30565b610c8e8185610c3b565b9350610c9e818560208601610c46565b80840191505092915050565b6000610cb68284610c79565b915081905092915050565b600081519050919050565b6000601f19601f8301169050919050565b6000610ce882610cc1565b610cf28185610a8f565b9350610d02818560208601610c46565b610d0b81610ccc565b840191505092915050565b60006020820190508181036000830152610d308184610cdd565b90509291505056fea26469706673582212205418a46286da7ab47c998b2aca5cfff625308ba3bef18157019e0085e0cb8cca64736f6c63430008090033",
  "linkReferences": {},
  "deployedLinkReferences": {}
}