{
  "_format": "hh-sol-artifact-1",
  "contractName": "LumerinVestingActual",
  "sourceName": "contracts/LumerinVesting.sol",
  "abi": [
    {
      "inputs": [
        {
          "internalType": "address",
          "name": "_claiment",
          "type": "address"
        },
        {
          "internalType": "address",
          "name": "_lumerin",
          "type": "address"
        },
        {
          "internalType": "uint256",
          "name": "_totalAllocation",
          "type": "uint256"
        },
        {
          "internalType": "uint256[]",
          "name": "_vestingMonths",
          "type": "uint256[]"
        },
        {
          "internalType": "uint256",
          "name": "_start",
          "type": "uint256"
        },
        {
          "internalType": "uint256",
          "name": "_duration",
          "type": "uint256"
        }
      ],
      "stateMutability": "nonpayable",
      "type": "constructor"
    },
    {
      "anonymous": false,
      "inputs": [
        {
          "indexed": true,
          "internalType": "address",
          "name": "token",
          "type": "address"
        },
        {
          "indexed": false,
          "internalType": "uint256",
          "name": "amount",
          "type": "uint256"
        }
      ],
      "name": "ERC20Released",
      "type": "event"
    },
    {
      "anonymous": false,
      "inputs": [
        {
          "indexed": false,
          "internalType": "uint256",
          "name": "amount",
          "type": "uint256"
        }
      ],
      "name": "EtherReleased",
      "type": "event"
    },
    {
      "inputs": [],
      "name": "beneficiary",
      "outputs": [
        {
          "internalType": "address",
          "name": "",
          "type": "address"
        }
      ],
      "stateMutability": "view",
      "type": "function"
    },
    {
      "inputs": [],
      "name": "duration",
      "outputs": [
        {
          "internalType": "uint256",
          "name": "",
          "type": "uint256"
        }
      ],
      "stateMutability": "view",
      "type": "function"
    },
    {
      "inputs": [
        {
          "internalType": "address",
          "name": "token",
          "type": "address"
        }
      ],
      "name": "release",
      "outputs": [],
      "stateMutability": "nonpayable",
      "type": "function"
    },
    {
      "inputs": [],
      "name": "release",
      "outputs": [],
      "stateMutability": "nonpayable",
      "type": "function"
    },
    {
      "inputs": [
        {
          "internalType": "uint256",
          "name": "_time",
          "type": "uint256"
        }
      ],
      "name": "releaseTest",
      "outputs": [],
      "stateMutability": "nonpayable",
      "type": "function"
    },
    {
      "inputs": [],
      "name": "released",
      "outputs": [
        {
          "internalType": "uint256",
          "name": "",
          "type": "uint256"
        }
      ],
      "stateMutability": "view",
      "type": "function"
    },
    {
      "inputs": [
        {
          "internalType": "address",
          "name": "token",
          "type": "address"
        }
      ],
      "name": "released",
      "outputs": [
        {
          "internalType": "uint256",
          "name": "",
          "type": "uint256"
        }
      ],
      "stateMutability": "view",
      "type": "function"
    },
    {
      "inputs": [],
      "name": "start",
      "outputs": [
        {
          "internalType": "uint256",
          "name": "",
          "type": "uint256"
        }
      ],
      "stateMutability": "view",
      "type": "function"
    },
    {
      "inputs": [
        {
          "internalType": "uint64",
          "name": "timestamp",
          "type": "uint64"
        }
      ],
      "name": "vestedAmount",
      "outputs": [
        {
          "internalType": "uint256",
          "name": "",
          "type": "uint256"
        }
      ],
      "stateMutability": "view",
      "type": "function"
    },
    {
      "inputs": [
        {
          "internalType": "address",
          "name": "token",
          "type": "address"
        },
        {
          "internalType": "uint64",
          "name": "timestamp",
          "type": "uint64"
        }
      ],
      "name": "vestedAmount",
      "outputs": [
        {
          "internalType": "uint256",
          "name": "",
          "type": "uint256"
        }
      ],
      "stateMutability": "view",
      "type": "function"
    },
    {
      "stateMutability": "payable",
      "type": "receive"
    }
  ],
  "bytecode": "0x60e06040523480156200001157600080fd5b5060405162001a8a38038062001a8a833981810160405281019062000037919062000464565b858282600073ffffffffffffffffffffffffffffffffffffffff168373ffffffffffffffffffffffffffffffffffffffff161415620000ad576040517f08c379a0000000000000000000000000000000000000000000000000000000008152600401620000a490620005a6565b60405180910390fd5b8273ffffffffffffffffffffffffffffffffffffffff1660808173ffffffffffffffffffffffffffffffffffffffff16815250508167ffffffffffffffff1660a08167ffffffffffffffff16815250508067ffffffffffffffff1660c08167ffffffffffffffff168152505050505085600460006101000a81548173ffffffffffffffffffffffffffffffffffffffff021916908373ffffffffffffffffffffffffffffffffffffffff16021790555084600560006101000a81548173ffffffffffffffffffffffffffffffffffffffff021916908373ffffffffffffffffffffffffffffffffffffffff160217905550836003819055508260029080519060200190620001bd929190620001ca565b50505050505050620005c8565b82805482825590600052602060002090810192821562000209579160200282015b8281111562000208578251825591602001919060010190620001eb565b5b5090506200021891906200021c565b5090565b5b80821115620002375760008160009055506001016200021d565b5090565b6000604051905090565b600080fd5b600080fd5b600073ffffffffffffffffffffffffffffffffffffffff82169050919050565b60006200027c826200024f565b9050919050565b6200028e816200026f565b81146200029a57600080fd5b50565b600081519050620002ae8162000283565b92915050565b6000819050919050565b620002c981620002b4565b8114620002d557600080fd5b50565b600081519050620002e981620002be565b92915050565b600080fd5b6000601f19601f8301169050919050565b7f4e487b7100000000000000000000000000000000000000000000000000000000600052604160045260246000fd5b6200033f82620002f4565b810181811067ffffffffffffffff8211171562000361576200036062000305565b5b80604052505050565b6000620003766200023b565b905062000384828262000334565b919050565b600067ffffffffffffffff821115620003a757620003a662000305565b5b602082029050602081019050919050565b600080fd5b6000620003d4620003ce8462000389565b6200036a565b90508083825260208201905060208402830185811115620003fa57620003f9620003b8565b5b835b81811015620004275780620004128882620002d8565b845260208401935050602081019050620003fc565b5050509392505050565b600082601f830112620004495762000448620002ef565b5b81516200045b848260208601620003bd565b91505092915050565b60008060008060008060c0878903121562000484576200048362000245565b5b60006200049489828a016200029d565b9650506020620004a789828a016200029d565b9550506040620004ba89828a01620002d8565b945050606087015167ffffffffffffffff811115620004de57620004dd6200024a565b5b620004ec89828a0162000431565b9350506080620004ff89828a01620002d8565b92505060a06200051289828a01620002d8565b9150509295509295509295565b600082825260208201905092915050565b7f56657374696e6757616c6c65743a2062656e6566696369617279206973207a6560008201527f726f206164647265737300000000000000000000000000000000000000000000602082015250565b60006200058e602a836200051f565b91506200059b8262000530565b604082019050919050565b60006020820190508181036000830152620005c1816200057f565b9050919050565b60805160a05160c051611492620005f86000396000610296015260006106d30152600061052801526114926000f3fe6080604052600436106100955760003560e01c8063810ec23b11610059578063810ec23b1461018657806386d1a69f146101c357806396132521146101da5780639852595c14610205578063be9a6555146102425761009c565b80630a17b06b146100a15780630fb5a6b4146100de578063191655871461010957806327a767171461013257806338af3eed1461015b5761009c565b3661009c57005b600080fd5b3480156100ad57600080fd5b506100c860048036038101906100c39190610c10565b61026d565b6040516100d59190610c56565b60405180910390f35b3480156100ea57600080fd5b506100f3610292565b6040516101009190610c56565b60405180910390f35b34801561011557600080fd5b50610130600480360381019061012b9190610ccf565b6102c4565b005b34801561013e57600080fd5b5061015960048036038101906101549190610d28565b61039f565b005b34801561016757600080fd5b50610170610524565b60405161017d9190610d64565b60405180910390f35b34801561019257600080fd5b506101ad60048036038101906101a89190610d7f565b61054c565b6040516101ba9190610c56565b60405180910390f35b3480156101cf57600080fd5b506101d86105fb565b005b3480156101e657600080fd5b506101ef61067d565b6040516101fc9190610c56565b60405180910390f35b34801561021157600080fd5b5061022c60048036038101906102279190610ccf565b610686565b6040516102399190610c56565b60405180910390f35b34801561024e57600080fd5b506102576106cf565b6040516102649190610c56565b60405180910390f35b600061028b61027a61067d565b476102859190610dee565b83610701565b9050919050565b60007f000000000000000000000000000000000000000000000000000000000000000067ffffffffffffffff16905090565b60006102cf82610686565b6102d9834261054c565b6102e39190610e44565b905080600160008473ffffffffffffffffffffffffffffffffffffffff1673ffffffffffffffffffffffffffffffffffffffff16815260200190815260200160002060008282546103349190610dee565b925050819055508173ffffffffffffffffffffffffffffffffffffffff167fc0e523490dd523c33b1878c9eb14ff46991e3f5b2cd33710918618f2a39cba1b826040516103819190610c56565b60405180910390a261039b82610395610524565b836107d4565b5050565b60006103cc600560009054906101000a900473ffffffffffffffffffffffffffffffffffffffff16610686565b6103f8600560009054906101000a900473ffffffffffffffffffffffffffffffffffffffff168461054c565b6104029190610e44565b90508060016000600560009054906101000a900473ffffffffffffffffffffffffffffffffffffffff1673ffffffffffffffffffffffffffffffffffffffff1673ffffffffffffffffffffffffffffffffffffffff16815260200190815260200160002060008282546104759190610dee565b92505081905550600560009054906101000a900473ffffffffffffffffffffffffffffffffffffffff1673ffffffffffffffffffffffffffffffffffffffff167fc0e523490dd523c33b1878c9eb14ff46991e3f5b2cd33710918618f2a39cba1b826040516104e49190610c56565b60405180910390a2610520600560009054906101000a900473ffffffffffffffffffffffffffffffffffffffff1661051a610524565b836107d4565b5050565b60007f0000000000000000000000000000000000000000000000000000000000000000905090565b60006105f361055a84610686565b8473ffffffffffffffffffffffffffffffffffffffff166370a08231306040518263ffffffff1660e01b81526004016105939190610d64565b60206040518083038186803b1580156105ab57600080fd5b505afa1580156105bf573d6000803e3d6000fd5b505050506040513d601f19601f820116820180604052508101906105e39190610e8d565b6105ed9190610dee565b83610701565b905092915050565b600061060561067d565b61060e4261026d565b6106189190610e44565b90508060008082825461062b9190610dee565b925050819055507fda9d4e5f101b8b9b1c5b76d0c5a9f7923571acfc02376aa076b75a8c080c956b816040516106619190610c56565b60405180910390a161067a610674610524565b8261085a565b50565b60008054905090565b6000600160008373ffffffffffffffffffffffffffffffffffffffff1673ffffffffffffffffffffffffffffffffffffffff168152602001908152602001600020549050919050565b60007f000000000000000000000000000000000000000000000000000000000000000067ffffffffffffffff16905090565b600061070b6106cf565b8267ffffffffffffffff16101561072557600090506107ce565b61072d610292565b6107356106cf565b61073f9190610dee565b8267ffffffffffffffff1610610757578290506107ce565b60005b6002805490508110801561079657506002818154811061077d5761077c610eba565b5b90600052602060002001548367ffffffffffffffff1610155b156107ae5780806107a690610ee9565b91505061075a565b60028054905081856107c09190610f32565b6107ca9190610fbb565b9150505b92915050565b6108558363a9059cbb60e01b84846040516024016107f3929190610fec565b604051602081830303815290604052907bffffffffffffffffffffffffffffffffffffffffffffffffffffffff19166020820180517bffffffffffffffffffffffffffffffffffffffffffffffffffffffff838183161783525050505061094e565b505050565b8047101561089d576040517f08c379a000000000000000000000000000000000000000000000000000000000815260040161089490611072565b60405180910390fd5b60008273ffffffffffffffffffffffffffffffffffffffff16826040516108c3906110c3565b60006040518083038185875af1925050503d8060008114610900576040519150601f19603f3d011682016040523d82523d6000602084013e610905565b606091505b5050905080610949576040517f08c379a00000000000000000000000000000000000000000000000000000000081526004016109409061114a565b60405180910390fd5b505050565b60006109b0826040518060400160405280602081526020017f5361666545524332303a206c6f772d6c6576656c2063616c6c206661696c65648152508573ffffffffffffffffffffffffffffffffffffffff16610a159092919063ffffffff16565b9050600081511115610a1057808060200190518101906109d091906111a2565b610a0f576040517f08c379a0000000000000000000000000000000000000000000000000000000008152600401610a0690611241565b60405180910390fd5b5b505050565b6060610a248484600085610a2d565b90509392505050565b606082471015610a72576040517f08c379a0000000000000000000000000000000000000000000000000000000008152600401610a69906112d3565b60405180910390fd5b610a7b85610b41565b610aba576040517f08c379a0000000000000000000000000000000000000000000000000000000008152600401610ab19061133f565b60405180910390fd5b6000808673ffffffffffffffffffffffffffffffffffffffff168587604051610ae391906113ce565b60006040518083038185875af1925050503d8060008114610b20576040519150601f19603f3d011682016040523d82523d6000602084013e610b25565b606091505b5091509150610b35828286610b64565b92505050949350505050565b6000808273ffffffffffffffffffffffffffffffffffffffff163b119050919050565b60608315610b7457829050610bc4565b600083511115610b875782518084602001fd5b816040517f08c379a0000000000000000000000000000000000000000000000000000000008152600401610bbb919061143a565b60405180910390fd5b9392505050565b600080fd5b600067ffffffffffffffff82169050919050565b610bed81610bd0565b8114610bf857600080fd5b50565b600081359050610c0a81610be4565b92915050565b600060208284031215610c2657610c25610bcb565b5b6000610c3484828501610bfb565b91505092915050565b6000819050919050565b610c5081610c3d565b82525050565b6000602082019050610c6b6000830184610c47565b92915050565b600073ffffffffffffffffffffffffffffffffffffffff82169050919050565b6000610c9c82610c71565b9050919050565b610cac81610c91565b8114610cb757600080fd5b50565b600081359050610cc981610ca3565b92915050565b600060208284031215610ce557610ce4610bcb565b5b6000610cf384828501610cba565b91505092915050565b610d0581610c3d565b8114610d1057600080fd5b50565b600081359050610d2281610cfc565b92915050565b600060208284031215610d3e57610d3d610bcb565b5b6000610d4c84828501610d13565b91505092915050565b610d5e81610c91565b82525050565b6000602082019050610d796000830184610d55565b92915050565b60008060408385031215610d9657610d95610bcb565b5b6000610da485828601610cba565b9250506020610db585828601610bfb565b9150509250929050565b7f4e487b7100000000000000000000000000000000000000000000000000000000600052601160045260246000fd5b6000610df982610c3d565b9150610e0483610c3d565b9250827fffffffffffffffffffffffffffffffffffffffffffffffffffffffffffffffff03821115610e3957610e38610dbf565b5b828201905092915050565b6000610e4f82610c3d565b9150610e5a83610c3d565b925082821015610e6d57610e6c610dbf565b5b828203905092915050565b600081519050610e8781610cfc565b92915050565b600060208284031215610ea357610ea2610bcb565b5b6000610eb184828501610e78565b91505092915050565b7f4e487b7100000000000000000000000000000000000000000000000000000000600052603260045260246000fd5b6000610ef482610c3d565b91507fffffffffffffffffffffffffffffffffffffffffffffffffffffffffffffffff821415610f2757610f26610dbf565b5b600182019050919050565b6000610f3d82610c3d565b9150610f4883610c3d565b9250817fffffffffffffffffffffffffffffffffffffffffffffffffffffffffffffffff0483118215151615610f8157610f80610dbf565b5b828202905092915050565b7f4e487b7100000000000000000000000000000000000000000000000000000000600052601260045260246000fd5b6000610fc682610c3d565b9150610fd183610c3d565b925082610fe157610fe0610f8c565b5b828204905092915050565b60006040820190506110016000830185610d55565b61100e6020830184610c47565b9392505050565b600082825260208201905092915050565b7f416464726573733a20696e73756666696369656e742062616c616e6365000000600082015250565b600061105c601d83611015565b915061106782611026565b602082019050919050565b6000602082019050818103600083015261108b8161104f565b9050919050565b600081905092915050565b50565b60006110ad600083611092565b91506110b88261109d565b600082019050919050565b60006110ce826110a0565b9150819050919050565b7f416464726573733a20756e61626c6520746f2073656e642076616c75652c207260008201527f6563697069656e74206d61792068617665207265766572746564000000000000602082015250565b6000611134603a83611015565b915061113f826110d8565b604082019050919050565b6000602082019050818103600083015261116381611127565b9050919050565b60008115159050919050565b61117f8161116a565b811461118a57600080fd5b50565b60008151905061119c81611176565b92915050565b6000602082840312156111b8576111b7610bcb565b5b60006111c68482850161118d565b91505092915050565b7f5361666545524332303a204552433230206f7065726174696f6e20646964206e60008201527f6f74207375636365656400000000000000000000000000000000000000000000602082015250565b600061122b602a83611015565b9150611236826111cf565b604082019050919050565b6000602082019050818103600083015261125a8161121e565b9050919050565b7f416464726573733a20696e73756666696369656e742062616c616e636520666f60008201527f722063616c6c0000000000000000000000000000000000000000000000000000602082015250565b60006112bd602683611015565b91506112c882611261565b604082019050919050565b600060208201905081810360008301526112ec816112b0565b9050919050565b7f416464726573733a2063616c6c20746f206e6f6e2d636f6e7472616374000000600082015250565b6000611329601d83611015565b9150611334826112f3565b602082019050919050565b600060208201905081810360008301526113588161131c565b9050919050565b600081519050919050565b60005b8381101561138857808201518184015260208101905061136d565b83811115611397576000848401525b50505050565b60006113a88261135f565b6113b28185611092565b93506113c281856020860161136a565b80840191505092915050565b60006113da828461139d565b915081905092915050565b600081519050919050565b6000601f19601f8301169050919050565b600061140c826113e5565b6114168185611015565b935061142681856020860161136a565b61142f816113f0565b840191505092915050565b600060208201905081810360008301526114548184611401565b90509291505056fea26469706673582212203686a71cbbaf9cc0754d41d51a794235c623946b609f588874bc47fb1bcb2f3064736f6c63430008090033",
  "linkReferences": {},
  "deployedLinkReferences": {}
}