{
  "contractName": "CloneFactory",
  "abi": [
    {
      "inputs": [
        {
          "internalType": "address",
          "name": "_lmn",
          "type": "address"
        },
        {
          "internalType": "address",
          "name": "_validator",
          "type": "address"
        },
        {
          "internalType": "address",
          "name": "_proxy",
          "type": "address"
        }
      ],
      "stateMutability": "nonpayable",
      "type": "constructor"
    },
    {
      "anonymous": false,
      "inputs": [
        {
          "indexed": true,
          "internalType": "address",
          "name": "_address",
          "type": "address"
        }
      ],
      "name": "contractCreated",
      "type": "event"
    },
    {
      "inputs": [
        {
          "internalType": "uint256",
          "name": "_price",
          "type": "uint256"
        },
        {
          "internalType": "uint256",
          "name": "_limit",
          "type": "uint256"
        },
        {
          "internalType": "uint256",
          "name": "_speed",
          "type": "uint256"
        },
        {
          "internalType": "uint256",
          "name": "_length",
          "type": "uint256"
        },
        {
          "internalType": "uint256",
          "name": "_validationFee",
          "type": "uint256"
        },
        {
          "internalType": "address",
          "name": "_seller",
          "type": "address"
        }
      ],
      "name": "setCreateNewRentalContract",
      "outputs": [
        {
          "internalType": "address",
          "name": "",
          "type": "address"
        }
      ],
      "stateMutability": "nonpayable",
      "type": "function"
    }
  ],
  "bytecode": "0x608060405234801561001057600080fd5b5060405161291a38038061291a8339818101604052810190610032919061018d565b60006040516100409061016b565b604051809103906000f08015801561005c573d6000803e3d6000fd5b509050806000806101000a81548173ffffffffffffffffffffffffffffffffffffffff021916908373ffffffffffffffffffffffffffffffffffffffff16021790555083600360006101000a81548173ffffffffffffffffffffffffffffffffffffffff021916908373ffffffffffffffffffffffffffffffffffffffff16021790555082600160006101000a81548173ffffffffffffffffffffffffffffffffffffffff021916908373ffffffffffffffffffffffffffffffffffffffff16021790555081600260006101000a81548173ffffffffffffffffffffffffffffffffffffffff021916908373ffffffffffffffffffffffffffffffffffffffff1602179055505050505061022e565b6121dc8061073e83390190565b60008151905061018781610217565b92915050565b6000806000606084860312156101a6576101a5610212565b5b60006101b486828701610178565b93505060206101c586828701610178565b92505060406101d686828701610178565b9150509250925092565b60006101eb826101f2565b9050919050565b600073ffffffffffffffffffffffffffffffffffffffff82169050919050565b600080fd5b610220816101e0565b811461022b57600080fd5b50565b6105018061023d6000396000f3fe608060405234801561001057600080fd5b506004361061002b5760003560e01c80633e45cccd14610030575b600080fd5b61004a6004803603810190610045919061029b565b610060565b6040516100579190610369565b60405180910390f35b60008061008c60008054906101000a900473ffffffffffffffffffffffffffffffffffffffff1661019c565b90508073ffffffffffffffffffffffffffffffffffffffff166374a34812898989898989600160009054906101000a900473ffffffffffffffffffffffffffffffffffffffff16600360009054906101000a900473ffffffffffffffffffffffffffffffffffffffff166040518963ffffffff1660e01b81526004016101199897969594939291906103a4565b600060405180830381600087803b15801561013357600080fd5b505af1158015610147573d6000803e3d6000fd5b505050508073ffffffffffffffffffffffffffffffffffffffff167ffcf9a0c9dedbfcd1a047374855fc36baaf605bd4f4837802a0cc938ba1b5f30260405160405180910390a2809150509695505050505050565b60006040517f3d602d80600a3d3981f3363d3d373d3d3d363d7300000000000000000000000081528260601b60148201527f5af43d82803e903d91602b57fd5bf3000000000000000000000000000000000060288201526037816000f0915050600073ffffffffffffffffffffffffffffffffffffffff168173ffffffffffffffffffffffffffffffffffffffff16141561026c576040517f08c379a000000000000000000000000000000000000000000000000000000000815260040161026390610384565b60405180910390fd5b919050565b6000813590506102808161049d565b92915050565b600081359050610295816104b4565b92915050565b60008060008060008060c087890312156102b8576102b761046f565b5b60006102c689828a01610286565b96505060206102d789828a01610286565b95505060406102e889828a01610286565b94505060606102f989828a01610286565b935050608061030a89828a01610286565b92505060a061031b89828a01610271565b9150509295509295509295565b61033181610433565b82525050565b6000610344601683610422565b915061034f82610474565b602082019050919050565b61036381610465565b82525050565b600060208201905061037e6000830184610328565b92915050565b6000602082019050818103600083015261039d81610337565b9050919050565b6000610100820190506103ba600083018b61035a565b6103c7602083018a61035a565b6103d4604083018961035a565b6103e1606083018861035a565b6103ee608083018761035a565b6103fb60a0830186610328565b61040860c0830185610328565b61041560e0830184610328565b9998505050505050505050565b600082825260208201905092915050565b600061043e82610445565b9050919050565b600073ffffffffffffffffffffffffffffffffffffffff82169050919050565b6000819050919050565b600080fd5b7f455243313136373a20637265617465206661696c656400000000000000000000600082015250565b6104a681610433565b81146104b157600080fd5b50565b6104bd81610465565b81146104c857600080fd5b5056fea264697066735822122075b2730e19ab1d64d8cca3c706f3514d8aab0a02784184a3eae22d94d73316f464736f6c63430008070033608060405234801561001057600080fd5b5060008060026101000a81548160ff0219169083600281111561003657610035610040565b5b021790555061006f565b7f4e487b7100000000000000000000000000000000000000000000000000000000600052602160045260246000fd5b61215e8061007e6000396000f3fe60806040526004361061012a5760003560e01c80637150d8ae116100ab578063b6293b341161006f578063b6293b3414610391578063c2042965146103a8578063c20906ac146103d3578063c5095d68146103fe578063ce0c722a14610429578063f8bbf27e146104545761012a565b80637150d8ae146102bc57806374a34812146102e757806385209ee014610310578063a035b1fe1461033b578063a4d66daf146103665761012a565b806316713b37116100f257806316713b37146101f75780631f7b6d321461022257806326b3c68b1461024d5780634897b9ac14610278578063498234851461028f5761012a565b806308551a531461012f578063089aa8a21461015a5780630a61e2d9146101855780630c3f6acf146101b057806311afdfc9146101db575b600080fd5b34801561013b57600080fd5b5061014461047f565b6040516101519190611966565b60405180910390f35b34801561016657600080fd5b5061016f6104a5565b60405161017c9190611966565b60405180910390f35b34801561019157600080fd5b5061019a6104cb565b6040516101a79190611aec565b60405180910390f35b3480156101bc57600080fd5b506101c56104d1565b6040516101d291906119c5565b60405180910390f35b6101f560048036038101906101f09190611615565b6104e4565b005b34801561020357600080fd5b5061020c610838565b6040516102199190611aec565b60405180910390f35b34801561022e57600080fd5b5061023761083e565b6040516102449190611aec565b60405180910390f35b34801561025957600080fd5b50610262610844565b60405161026f9190611aec565b60405180910390f35b34801561028457600080fd5b5061028d61084a565b005b34801561029b57600080fd5b506102a46109a5565b6040516102b3939291906119e0565b60405180910390f35b3480156102c857600080fd5b506102d1610bf2565b6040516102de9190611966565b60405180910390f35b3480156102f357600080fd5b5061030e60048036038101906103099190611723565b610c18565b005b34801561031c57600080fd5b50610325610df5565b60405161033291906119aa565b60405180910390f35b34801561034757600080fd5b50610350610e08565b60405161035d9190611aec565b60405180910390f35b34801561037257600080fd5b5061037b610e0e565b6040516103889190611aec565b60405180910390f35b34801561039d57600080fd5b506103a6610e14565b005b3480156103b457600080fd5b506103bd610fbd565b6040516103ca9190611aec565b60405180910390f35b3480156103df57600080fd5b506103e861107c565b6040516103f59190611aec565b60405180910390f35b34801561040a57600080fd5b50610413611082565b6040516104209190611aec565b60405180910390f35b34801561043557600080fd5b5061043e611088565b60405161044b9190611966565b60405180910390f35b34801561046057600080fd5b506104696110ae565b6040516104769190611aec565b60405180910390f35b600f60009054906101000a900473ffffffffffffffffffffffffffffffffffffffff1681565b600060039054906101000a900473ffffffffffffffffffffffffffffffffffffffff1681565b60045481565b600060029054906101000a900460ff1681565b600060038111156104f8576104f7611e29565b5b600660149054906101000a900460ff16600381111561051a57610519611e29565b5b1461055a576040517f08c379a000000000000000000000000000000000000000000000000000000000815260040161055190611a6c565b60405180910390fd5b856012908051906020019061057092919061146c565b50846013908051906020019061058792919061146c565b50836014908051906020019061059e92919061146c565b5082600e60006101000a81548173ffffffffffffffffffffffffffffffffffffffff021916908373ffffffffffffffffffffffffffffffffffffffff16021790555081601060006101000a81548173ffffffffffffffffffffffffffffffffffffffff021916908373ffffffffffffffffffffffffffffffffffffffff160217905550610672600f60009054906101000a900473ffffffffffffffffffffffffffffffffffffffff16600e60009054906101000a900473ffffffffffffffffffffffffffffffffffffffff166007546110b4565b60011515811515141561071f576001601560008473ffffffffffffffffffffffffffffffffffffffff1673ffffffffffffffffffffffffffffffffffffffff16815260200190815260200160002060006101000a81548160ff0219169083151502179055506064341461071a576040517f08c379a000000000000000000000000000000000000000000000000000000000815260040161071190611aac565b60405180910390fd5b6107f2565b6001601560008573ffffffffffffffffffffffffffffffffffffffff1673ffffffffffffffffffffffffffffffffffffffff16815260200190815260200160002060006101000a81548160ff021916908315150217905550600160156000600f60009054906101000a900473ffffffffffffffffffffffffffffffffffffffff1673ffffffffffffffffffffffffffffffffffffffff1673ffffffffffffffffffffffffffffffffffffffff16815260200190815260200160002060006101000a81548160ff0219169083151502179055505b42600d819055507f0c00d1d6cea0bd55f7d3b6e92ef60237b117b050185fc2816c708fd45f45e5bb336040516108289190611966565b60405180910390a1505050505050565b60055481565b600a5481565b600b5481565b60011515601560003373ffffffffffffffffffffffffffffffffffffffff1673ffffffffffffffffffffffffffffffffffffffff16815260200190815260200160002060009054906101000a900460ff161515146108dd576040517f08c379a00000000000000000000000000000000000000000000000000000000081526004016108d490611a2c565b60405180910390fd5b6000600d54426108ed9190611c60565b9050600080600a548310610904576000915061092f565b600a5483600a546109159190611c60565b6007546109229190611c06565b61092c9190611bd5565b91505b8160075461093d9190611c60565b90506109498183611179565b6003600660146101000a81548160ff0219169083600381111561096f5761096e611e29565b5b02179055507ff5e1a452bb76d7335225182a97ad694be2c7b4b5d75dcffb67ddf15db95f484460405160405180910390a1505050565b606080606060011515601560003373ffffffffffffffffffffffffffffffffffffffff1673ffffffffffffffffffffffffffffffffffffffff16815260200190815260200160002060009054906101000a900460ff16151514610a3d576040517f08c379a0000000000000000000000000000000000000000000000000000000008152600401610a3490611a2c565b60405180910390fd5b601260136014828054610a4f90611d68565b80601f0160208091040260200160405190810160405280929190818152602001828054610a7b90611d68565b8015610ac85780601f10610a9d57610100808354040283529160200191610ac8565b820191906000526020600020905b815481529060010190602001808311610aab57829003601f168201915b50505050509250818054610adb90611d68565b80601f0160208091040260200160405190810160405280929190818152602001828054610b0790611d68565b8015610b545780601f10610b2957610100808354040283529160200191610b54565b820191906000526020600020905b815481529060010190602001808311610b3757829003601f168201915b50505050509150808054610b6790611d68565b80601f0160208091040260200160405190810160405280929190818152602001828054610b9390611d68565b8015610be05780601f10610bb557610100808354040283529160200191610be0565b820191906000526020600020905b815481529060010190602001808311610bc357829003601f168201915b50505050509050925092509250909192565b600e60009054906101000a900473ffffffffffffffffffffffffffffffffffffffff1681565b600060019054906101000a900460ff1680610c3e575060008054906101000a900460ff16155b610c7d576040517f08c379a0000000000000000000000000000000000000000000000000000000008152600401610c7490611a8c565b60405180910390fd5b60008060019054906101000a900460ff161590508015610ccd576001600060016101000a81548160ff02191690831515021790555060016000806101000a81548160ff0219169083151502179055505b88600781905550876008819055508660098190555085600a8190555083600f60006101000a81548173ffffffffffffffffffffffffffffffffffffffff021916908373ffffffffffffffffffffffffffffffffffffffff16021790555084600c8190555082601060006101000a81548173ffffffffffffffffffffffffffffffffffffffff021916908373ffffffffffffffffffffffffffffffffffffffff1602179055506000600660146101000a81548160ff02191690836003811115610d9857610d97611e29565b5b0217905550610dc9601060009054906101000a900473ffffffffffffffffffffffffffffffffffffffff1683611383565b8015610dea5760008060016101000a81548160ff0219169083151502179055505b505050505050505050565b600660149054906101000a900460ff1681565b60075481565b60085481565b6000610e1e610fbd565b14610e5e576040517f08c379a0000000000000000000000000000000000000000000000000000000008152600401610e5590611a4c565b60405180910390fd5b6001151560156000600e60009054906101000a900473ffffffffffffffffffffffffffffffffffffffff1673ffffffffffffffffffffffffffffffffffffffff1673ffffffffffffffffffffffffffffffffffffffff16815260200190815260200160002060009054906101000a900460ff1615151480610f5157506001151560156000601060009054906101000a900473ffffffffffffffffffffffffffffffffffffffff1673ffffffffffffffffffffffffffffffffffffffff1673ffffffffffffffffffffffffffffffffffffffff16815260200190815260200160002060009054906101000a900460ff161515145b610f90576040517f08c379a0000000000000000000000000000000000000000000000000000000008152600401610f8790611acc565b60405180910390fd5b6002600660146101000a81548160ff02191690836003811115610fb657610fb5611e29565b5b0217905550565b6000600660009054906101000a900473ffffffffffffffffffffffffffffffffffffffff1673ffffffffffffffffffffffffffffffffffffffff166370a08231306040518263ffffffff1660e01b815260040161101a9190611966565b60206040518083038186803b15801561103257600080fd5b505afa158015611046573d6000803e3d6000fd5b505050506040513d601f19601f8201168201806040525081019061106a91906116f6565b6004546110779190611c60565b905090565b60095481565b600d5481565b600160009054906101000a900473ffffffffffffffffffffffffffffffffffffffff1681565b600c5481565b82600160006101000a81548173ffffffffffffffffffffffffffffffffffffffff021916908373ffffffffffffffffffffffffffffffffffffffff16021790555081600060036101000a81548173ffffffffffffffffffffffffffffffffffffffff021916908373ffffffffffffffffffffffffffffffffffffffff160217905550806004819055507f88265e9be093ab2ee66f829ad3ca909591f25cd6685323b555215283e78148eb4260405161116c9190611b07565b60405180910390a1505050565b600660009054906101000a900473ffffffffffffffffffffffffffffffffffffffff1673ffffffffffffffffffffffffffffffffffffffff1663a9059cbb600160009054906101000a900473ffffffffffffffffffffffffffffffffffffffff16846040518363ffffffff1660e01b81526004016111f8929190611981565b602060405180830381600087803b15801561121257600080fd5b505af1158015611226573d6000803e3d6000fd5b505050506040513d601f19601f8201168201806040525081019061124a91906115e8565b50600660009054906101000a900473ffffffffffffffffffffffffffffffffffffffff1673ffffffffffffffffffffffffffffffffffffffff1663a9059cbb600060039054906101000a900473ffffffffffffffffffffffffffffffffffffffff16836040518363ffffffff1660e01b81526004016112ca929190611981565b602060405180830381600087803b1580156112e457600080fd5b505af11580156112f8573d6000803e3d6000fd5b505050506040513d601f19601f8201168201806040525081019061131c91906115e8565b506001600060026101000a81548160ff0219169083600281111561134357611342611e29565b5b02179055507f88265e9be093ab2ee66f829ad3ca909591f25cd6685323b555215283e78148eb426040516113779190611b35565b60405180910390a15050565b81600260006101000a81548173ffffffffffffffffffffffffffffffffffffffff021916908373ffffffffffffffffffffffffffffffffffffffff16021790555080600360006101000a81548173ffffffffffffffffffffffffffffffffffffffff021916908373ffffffffffffffffffffffffffffffffffffffff160217905550600360009054906101000a900473ffffffffffffffffffffffffffffffffffffffff16600660006101000a81548173ffffffffffffffffffffffffffffffffffffffff021916908373ffffffffffffffffffffffffffffffffffffffff1602179055505050565b82805461147890611d68565b90600052602060002090601f01602090048101928261149a57600085556114e1565b82601f106114b357805160ff19168380011785556114e1565b828001600101855582156114e1579182015b828111156114e05782518255916020019190600101906114c5565b5b5090506114ee91906114f2565b5090565b5b8082111561150b5760008160009055506001016114f3565b5090565b600061152261151d84611b88565b611b63565b90508281526020810184848401111561153e5761153d611ebb565b5b611549848285611d26565b509392505050565b600081359050611560816120e3565b92915050565b600081359050611575816120fa565b92915050565b60008151905061158a816120fa565b92915050565b600082601f8301126115a5576115a4611eb6565b5b81356115b584826020860161150f565b91505092915050565b6000813590506115cd81612111565b92915050565b6000815190506115e281612111565b92915050565b6000602082840312156115fe576115fd611ec5565b5b600061160c8482850161157b565b91505092915050565b60008060008060008060c0878903121561163257611631611ec5565b5b600087013567ffffffffffffffff8111156116505761164f611ec0565b5b61165c89828a01611590565b965050602087013567ffffffffffffffff81111561167d5761167c611ec0565b5b61168989828a01611590565b955050604087013567ffffffffffffffff8111156116aa576116a9611ec0565b5b6116b689828a01611590565b94505060606116c789828a01611551565b93505060806116d889828a01611551565b92505060a06116e989828a01611566565b9150509295509295509295565b60006020828403121561170c5761170b611ec5565b5b600061171a848285016115d3565b91505092915050565b600080600080600080600080610100898b03121561174457611743611ec5565b5b60006117528b828c016115be565b98505060206117638b828c016115be565b97505060406117748b828c016115be565b96505060606117858b828c016115be565b95505060806117968b828c016115be565b94505060a06117a78b828c01611551565b93505060c06117b88b828c01611551565b92505060e06117c98b828c01611551565b9150509295985092959890939650565b6117e281611c94565b82525050565b6117f181611d02565b82525050565b61180081611d14565b82525050565b600061181182611bb9565b61181b8185611bc4565b935061182b818560208601611d35565b61183481611eca565b840191505092915050565b600061184c600e83611bc4565b915061185782611edb565b602082019050919050565b600061186f603183611bc4565b915061187a82611f04565b604082019050919050565b6000611892602e83611bc4565b915061189d82611f53565b604082019050919050565b60006118b5602583611bc4565b91506118c082611fa2565b604082019050919050565b60006118d8602e83611bc4565b91506118e382611ff1565b604082019050919050565b60006118fb601783611bc4565b915061190682612040565b602082019050919050565b600061191e601a83611bc4565b915061192982612069565b602082019050919050565b6000611941601283611bc4565b915061194c82612092565b602082019050919050565b61196081611cf8565b82525050565b600060208201905061197b60008301846117d9565b92915050565b600060408201905061199660008301856117d9565b6119a36020830184611957565b9392505050565b60006020820190506119bf60008301846117e8565b92915050565b60006020820190506119da60008301846117f7565b92915050565b600060608201905081810360008301526119fa8186611806565b90508181036020830152611a0e8185611806565b90508181036040830152611a228184611806565b9050949350505050565b60006020820190508181036000830152611a4581611862565b9050919050565b60006020820190508181036000830152611a6581611885565b9050919050565b60006020820190508181036000830152611a85816118a8565b9050919050565b60006020820190508181036000830152611aa5816118cb565b9050919050565b60006020820190508181036000830152611ac5816118ee565b9050919050565b60006020820190508181036000830152611ae581611911565b9050919050565b6000602082019050611b016000830184611957565b92915050565b6000604082019050611b1c6000830184611957565b8181036020830152611b2d8161183f565b905092915050565b6000604082019050611b4a6000830184611957565b8181036020830152611b5b81611934565b905092915050565b6000611b6d611b7e565b9050611b798282611d9a565b919050565b6000604051905090565b600067ffffffffffffffff821115611ba357611ba2611e87565b5b611bac82611eca565b9050602081019050919050565b600081519050919050565b600082825260208201905092915050565b6000611be082611cf8565b9150611beb83611cf8565b925082611bfb57611bfa611dfa565b5b828204905092915050565b6000611c1182611cf8565b9150611c1c83611cf8565b9250817fffffffffffffffffffffffffffffffffffffffffffffffffffffffffffffffff0483118215151615611c5557611c54611dcb565b5b828202905092915050565b6000611c6b82611cf8565b9150611c7683611cf8565b925082821015611c8957611c88611dcb565b5b828203905092915050565b6000611c9f82611cd8565b9050919050565b60008115159050919050565b6000819050611cc0826120bb565b919050565b6000819050611cd3826120cf565b919050565b600073ffffffffffffffffffffffffffffffffffffffff82169050919050565b6000819050919050565b6000611d0d82611cb2565b9050919050565b6000611d1f82611cc5565b9050919050565b82818337600083830152505050565b60005b83811015611d53578082015181840152602081019050611d38565b83811115611d62576000848401525b50505050565b60006002820490506001821680611d8057607f821691505b60208210811415611d9457611d93611e58565b5b50919050565b611da382611eca565b810181811067ffffffffffffffff82111715611dc257611dc1611e87565b5b80604052505050565b7f4e487b7100000000000000000000000000000000000000000000000000000000600052601160045260246000fd5b7f4e487b7100000000000000000000000000000000000000000000000000000000600052601260045260246000fd5b7f4e487b7100000000000000000000000000000000000000000000000000000000600052602160045260246000fd5b7f4e487b7100000000000000000000000000000000000000000000000000000000600052602260045260246000fd5b7f4e487b7100000000000000000000000000000000000000000000000000000000600052604160045260246000fd5b600080fd5b600080fd5b600080fd5b600080fd5b6000601f19601f8301169050919050565b7f457363726f772043726561746564000000000000000000000000000000000000600082015250565b7f746869732061646472657373206973206e6f7420616c6c6f77656420746f206360008201527f616c6c20746869732066756e6374696f6e000000000000000000000000000000602082015250565b7f6c756d6572696e20746f6b656e73206e65656420746f2062652073656e74207460008201527f6f2074686520636f6e7472616374000000000000000000000000000000000000602082015250565b7f636f6e7472616374206973206e6f7420696e20616e20617661696c61626c652060008201527f7374617465000000000000000000000000000000000000000000000000000000602082015250565b7f496e697469616c697a61626c653a20636f6e747261637420697320616c72656160008201527f647920696e697469616c697a6564000000000000000000000000000000000000602082015250565b7f76616c69646174696f6e20666565206e6f742073656e74000000000000000000600082015250565b7f74686520627579657220686173206e6f74206265656e20736574000000000000600082015250565b7f436f6e747261637420436f6d706c657465640000000000000000000000000000600082015250565b600481106120cc576120cb611e29565b5b50565b600381106120e0576120df611e29565b5b50565b6120ec81611c94565b81146120f757600080fd5b50565b61210381611ca6565b811461210e57600080fd5b50565b61211a81611cf8565b811461212557600080fd5b5056fea26469706673582212206eff8cb3551bc7378cf6e2fcd59cd0df07296938d6556ee3bc4e193a2a19cf9864736f6c63430008070033",
  "immutableReferences": {},
  "source": "//SPDX-License-Identifier: MIT\n\npragma solidity >0.8.0;\n\nimport \"@openzeppelin/contracts/proxy/Clones.sol\";\nimport \"@openzeppelin/contracts/access/Ownable.sol\";\nimport './Implementation.sol';\n\n/// @title CloneFactory\n/// @author Josh Kean (Lumerin)\n/// @notice Variables passed into contract initializer are subject to change based on the design of the hashrate contract\n\ncontract CloneFactory {\n  address baseImplementation; \n  address validator;\n  address proxy;\n  address lmnDeploy;\n  address webfacingAddress;\n\n  constructor(address _lmn, address _validator, address _proxy) {\n    Implementation _imp = new Implementation();\n    baseImplementation = address(_imp);\n    lmnDeploy = _lmn;\n    validator = _validator;\n    proxy = _proxy;\n  }\n\n  event contractCreated(address indexed _address); //emitted whenever a contract is created\n\n  //function to create a new Implementation contract\n  function setCreateNewRentalContract(\n    uint _price,\n    uint _limit,\n    uint _speed,\n    uint _length,\n    uint _validationFee,\n    address _seller\n  ) external returns (address) {\n    address _newContract = Clones.clone(baseImplementation); \n    Implementation(_newContract).initialize(_price, _limit, _speed, _length, _validationFee, _seller, validator, lmnDeploy);\n    emit contractCreated(_newContract);\n    return _newContract;\n  }\n\n}\n",
  "sourcePath": "/Users/joshkean/Documents/deployments/support_contracts/validator/contracts/CloneFactory.sol",
  "compiler": {
    "name": "solc",
    "version": "0.8.7+commit.e28d00a7.Emscripten.clang"
  },
  "schemaVersion": "3.4.2",
  "updatedAt": "2021-10-21T23:02:01.169Z",
  "networkType": "ethereum",
  "devdoc": {
    "author": "Josh Kean (Lumerin)",
    "kind": "dev",
    "methods": {},
    "title": "CloneFactory",
    "version": 1
  },
  "userdoc": {
    "kind": "user",
    "methods": {},
    "notice": "Variables passed into contract initializer are subject to change based on the design of the hashrate contract",
    "version": 1
  }
}