{
  "contractName": "Escrow",
  "abi": [
    {
      "inputs": [],
      "stateMutability": "nonpayable",
      "type": "constructor"
    },
    {
      "anonymous": false,
      "inputs": [
        {
          "indexed": false,
          "internalType": "uint256",
          "name": "date",
          "type": "uint256"
        },
        {
          "indexed": false,
          "internalType": "string",
          "name": "val",
          "type": "string"
        }
      ],
      "name": "dataEvent",
      "type": "event"
    },
    {
      "inputs": [],
      "name": "contractTotal",
      "outputs": [
        {
          "internalType": "uint256",
          "name": "",
          "type": "uint256"
        }
      ],
      "stateMutability": "view",
      "type": "function"
    },
    {
      "inputs": [],
      "name": "currentState",
      "outputs": [
        {
          "internalType": "enum Escrow.State",
          "name": "",
          "type": "uint8"
        }
      ],
      "stateMutability": "view",
      "type": "function"
    },
    {
      "inputs": [],
      "name": "escrow_purchaser",
      "outputs": [
        {
          "internalType": "address",
          "name": "",
          "type": "address"
        }
      ],
      "stateMutability": "view",
      "type": "function"
    },
    {
      "inputs": [],
      "name": "escrow_seller",
      "outputs": [
        {
          "internalType": "address",
          "name": "",
          "type": "address"
        }
      ],
      "stateMutability": "view",
      "type": "function"
    },
    {
      "inputs": [],
      "name": "receivedTotal",
      "outputs": [
        {
          "internalType": "uint256",
          "name": "",
          "type": "uint256"
        }
      ],
      "stateMutability": "view",
      "type": "function"
    },
    {
      "inputs": [],
      "name": "dueAmount",
      "outputs": [
        {
          "internalType": "uint256",
          "name": "",
          "type": "uint256"
        }
      ],
      "stateMutability": "view",
      "type": "function"
    }
  ],
  "bytecode": "0x608060405234801561001057600080fd5b5060008060006101000a81548160ff0219169083600281111561003657610035610040565b5b021790555061006f565b7f4e487b7100000000000000000000000000000000000000000000000000000000600052602160045260246000fd5b61045c8061007e6000396000f3fe608060405234801561001057600080fd5b50600436106100625760003560e01c8063089aa8a2146100675780630a61e2d9146100855780630c3f6acf146100a357806316713b37146100c1578063c2042965146100df578063ce0c722a146100fd575b600080fd5b61006f61011b565b60405161007c91906102b2565b60405180910390f35b61008d610141565b60405161009a91906102e8565b60405180910390f35b6100ab610147565b6040516100b891906102cd565b60405180910390f35b6100c9610158565b6040516100d691906102e8565b60405180910390f35b6100e761015e565b6040516100f491906102e8565b60405180910390f35b61010561021d565b60405161011291906102b2565b60405180910390f35b600060019054906101000a900473ffffffffffffffffffffffffffffffffffffffff1681565b60045481565b60008054906101000a900460ff1681565b60055481565b6000600660009054906101000a900473ffffffffffffffffffffffffffffffffffffffff1673ffffffffffffffffffffffffffffffffffffffff166370a08231306040518263ffffffff1660e01b81526004016101bb91906102b2565b60206040518083038186803b1580156101d357600080fd5b505afa1580156101e7573d6000803e3d6000fd5b505050506040513d601f19601f8201168201806040525081019061020b9190610258565b6004546102189190610303565b905090565b600160009054906101000a900473ffffffffffffffffffffffffffffffffffffffff1681565b6000815190506102528161040f565b92915050565b60006020828403121561026e5761026d6103f6565b5b600061027c84828501610243565b91505092915050565b61028e81610337565b82525050565b61029d81610386565b82525050565b6102ac8161037c565b82525050565b60006020820190506102c76000830184610285565b92915050565b60006020820190506102e26000830184610294565b92915050565b60006020820190506102fd60008301846102a3565b92915050565b600061030e8261037c565b91506103198361037c565b92508282101561032c5761032b610398565b5b828203905092915050565b60006103428261035c565b9050919050565b6000819050610357826103fb565b919050565b600073ffffffffffffffffffffffffffffffffffffffff82169050919050565b6000819050919050565b600061039182610349565b9050919050565b7f4e487b7100000000000000000000000000000000000000000000000000000000600052601160045260246000fd5b7f4e487b7100000000000000000000000000000000000000000000000000000000600052602160045260246000fd5b600080fd5b6003811061040c5761040b6103c7565b5b50565b6104188161037c565b811461042357600080fd5b5056fea2646970667358221220f7d2387d4972cb25454a3b5ac819f8d8c86f6592d8e70a6b8d655ac2158a1db164736f6c63430008070033",
  "immutableReferences": {},
  "source": "// SPDX-License-Identifier: MIT\npragma solidity ^0.8.0;\n\n/// @title Marketplace Escrow\n/// @author Lance Seidman (Lumerin)\n/// @notice This first version will be used to hold lumerin temporarily for the Marketplace Hash Rental.\n\nimport \"./LumerinToken.sol\";\n\n\ncontract Escrow {\n    \n    enum State {AWAITING_PAYMENT, COMPLETE, FUNDED}\n    State public currentState;\n\n    address public escrow_purchaser; // Entity making a payment...\n    address public escrow_seller;  // Entity to receive funds...\n    //@dev would it make sense to have the escrow_validator also be public so people know the history of this mediator\n    //@dev would it make sense to consider the escrow_validator and the hashrate validator to be the same entity?\n    address escrow_validator;  // For dispute management...\n    address titanToken;\n    uint256 public contractTotal; // How much should be escrowed...\n    uint256 public receivedTotal; // Optional; Keep a balance for how much has been received...\n    Lumerin myToken;\n    \n    event dataEvent(uint256 date, string val);\n    \n   \n    // @notice Run once the contract is created. Set contract owner, which is assumed to be the Validator.\n    // @dev We're making the sender (releaser to the BC) the Validator and set the State of the contract.\n    constructor() {\n        currentState = State.AWAITING_PAYMENT;\n    }\n\n    //internal function which will be called by the hashrate contract\n    function setParameters(address _validator, address _titanToken) internal { \n        escrow_validator = _validator;\n        titanToken = _titanToken;\n        myToken = Lumerin(titanToken);\n    }\n\n    // @notice This will create a new escrow based on the seller, buyer, and total.\n    // @dev Call this in order to make a new contract. Potentially this will have a database within the contract to store/call by \n    //      the validator ONLY.\n    function createEscrow(address _escrow_seller, address _escrow_purchaser, uint256 _lumerinTotal) internal {\n        escrow_seller = _escrow_seller;\n        escrow_purchaser = _escrow_purchaser;\n        contractTotal = _lumerinTotal;\n        \n        emit dataEvent(block.timestamp, 'Escrow Created');\n    }\n\n    \n    // @notice Find out how much is left to fullfill the Escrow to say it's funded.\n    // @dev This is used to determine if the contract amount has been fullfilled and return how much is left to be fullfilled. \n    // @dev only works if underpayment. overpayment won't work\n    function dueAmount() public view returns (uint256) {\n        //check to see what happens when more lmn is sent\n       return contractTotal - myToken.balanceOf(address(this));\n    }\n    \n    // @notice Validator can request the funds to be released once determined it's safe to do.\n    // @dev Function makes sure the contract was fully funded by checking the State and if so, release the funds to the seller.\n    // sends lumerin tokens to the appropriate entities. _buyer will obtain a 0 value unless theres a penalty involved\n    function withdrawFunds(uint _seller, uint _buyer) internal {\n            myToken.transfer(escrow_seller, _seller);\n            myToken.transfer(escrow_purchaser, _buyer);\n\n            currentState = State.COMPLETE; \n            emit dataEvent(block.timestamp, 'Contract Completed');\n    }\n}\n",
  "sourcePath": "/Users/joshkean/Documents/deployments/support_contracts/validator/contracts/Escrow.sol",
  "compiler": {
    "name": "solc",
    "version": "0.8.7+commit.e28d00a7.Emscripten.clang"
  },
  "schemaVersion": "3.4.2",
  "updatedAt": "2021-10-19T23:03:50.249Z",
  "devdoc": {
    "kind": "dev",
    "methods": {},
    "version": 1
  },
  "userdoc": {
    "kind": "user",
    "methods": {},
    "version": 1
  }
}