{
  "contractName": "Implementation",
  "abi": [
    {
      "anonymous": false,
      "inputs": [],
      "name": "contractClosed",
      "type": "event"
    },
    {
      "anonymous": false,
      "inputs": [
        {
          "indexed": false,
          "internalType": "address",
          "name": "_buyer",
          "type": "address"
        }
      ],
      "name": "contractPurchased",
      "type": "event"
    },
    {
      "inputs": [],
      "name": "buyer",
      "outputs": [
        {
          "internalType": "address",
          "name": "",
          "type": "address"
        }
      ],
      "stateMutability": "view",
      "type": "function"
    },
    {
      "inputs": [],
      "name": "contractState",
      "outputs": [
        {
          "internalType": "enum Implementation.ContractState",
          "name": "",
          "type": "uint8"
        }
      ],
      "stateMutability": "view",
      "type": "function"
    },
    {
      "inputs": [],
      "name": "contractTotal",
      "outputs": [
        {
          "internalType": "uint256",
          "name": "",
          "type": "uint256"
        }
      ],
      "stateMutability": "view",
      "type": "function"
    },
    {
      "inputs": [],
      "name": "encryptedPoolData",
      "outputs": [
        {
          "internalType": "string",
          "name": "",
          "type": "string"
        }
      ],
      "stateMutability": "view",
      "type": "function"
    },
    {
      "inputs": [],
      "name": "escrow_purchaser",
      "outputs": [
        {
          "internalType": "address",
          "name": "",
          "type": "address"
        }
      ],
      "stateMutability": "view",
      "type": "function"
    },
    {
      "inputs": [],
      "name": "escrow_seller",
      "outputs": [
        {
          "internalType": "address",
          "name": "",
          "type": "address"
        }
      ],
      "stateMutability": "view",
      "type": "function"
    },
    {
      "inputs": [],
      "name": "length",
      "outputs": [
        {
          "internalType": "uint256",
          "name": "",
          "type": "uint256"
        }
      ],
      "stateMutability": "view",
      "type": "function"
    },
    {
      "inputs": [],
      "name": "limit",
      "outputs": [
        {
          "internalType": "uint256",
          "name": "",
          "type": "uint256"
        }
      ],
      "stateMutability": "view",
      "type": "function"
    },
    {
      "inputs": [],
      "name": "port",
      "outputs": [
        {
          "internalType": "uint256",
          "name": "",
          "type": "uint256"
        }
      ],
      "stateMutability": "view",
      "type": "function"
    },
    {
      "inputs": [],
      "name": "price",
      "outputs": [
        {
          "internalType": "uint256",
          "name": "",
          "type": "uint256"
        }
      ],
      "stateMutability": "view",
      "type": "function"
    },
    {
      "inputs": [],
      "name": "receivedTotal",
      "outputs": [
        {
          "internalType": "uint256",
          "name": "",
          "type": "uint256"
        }
      ],
      "stateMutability": "view",
      "type": "function"
    },
    {
      "inputs": [],
      "name": "seller",
      "outputs": [
        {
          "internalType": "address",
          "name": "",
          "type": "address"
        }
      ],
      "stateMutability": "view",
      "type": "function"
    },
    {
      "inputs": [],
      "name": "speed",
      "outputs": [
        {
          "internalType": "uint256",
          "name": "",
          "type": "uint256"
        }
      ],
      "stateMutability": "view",
      "type": "function"
    },
    {
      "inputs": [],
      "name": "startingBlockTimestamp",
      "outputs": [
        {
          "internalType": "uint256",
          "name": "",
          "type": "uint256"
        }
      ],
      "stateMutability": "view",
      "type": "function"
    },
    {
      "inputs": [],
      "name": "validationFee",
      "outputs": [
        {
          "internalType": "uint256",
          "name": "",
          "type": "uint256"
        }
      ],
      "stateMutability": "view",
      "type": "function"
    },
    {
      "inputs": [
        {
          "internalType": "uint256",
          "name": "_price",
          "type": "uint256"
        },
        {
          "internalType": "uint256",
          "name": "_limit",
          "type": "uint256"
        },
        {
          "internalType": "uint256",
          "name": "_speed",
          "type": "uint256"
        },
        {
          "internalType": "uint256",
          "name": "_length",
          "type": "uint256"
        },
        {
          "internalType": "uint256",
          "name": "_validationFee",
          "type": "uint256"
        },
        {
          "internalType": "address",
          "name": "_seller",
          "type": "address"
        },
        {
          "internalType": "address",
          "name": "_contractManager",
          "type": "address"
        },
        {
          "internalType": "address",
          "name": "_lmn",
          "type": "address"
        }
      ],
      "name": "initialize",
      "outputs": [],
      "stateMutability": "nonpayable",
      "type": "function"
    },
    {
      "inputs": [
        {
          "internalType": "string",
          "name": "_encryptedPoolData",
          "type": "string"
        },
        {
          "internalType": "address",
          "name": "_buyer",
          "type": "address"
        },
        {
          "internalType": "address",
          "name": "_validator",
          "type": "address"
        },
        {
          "internalType": "bool",
          "name": "_withValidator",
          "type": "bool"
        }
      ],
      "name": "setPurchaseContract",
      "outputs": [],
      "stateMutability": "payable",
      "type": "function"
    },
    {
      "inputs": [],
      "name": "setContractCloseOut",
      "outputs": [],
      "stateMutability": "nonpayable",
      "type": "function"
    },
    {
      "inputs": [],
      "name": "setFundContract",
      "outputs": [],
      "stateMutability": "nonpayable",
      "type": "function"
    }
  ],
  "bytecode": "0x608060405234801561001057600080fd5b50611e58806100206000396000f3fe6080604052600436106101145760003560e01c80638331ed49116100a0578063b6293b3411610064578063b6293b341461034e578063c20906ac14610365578063c5095d6814610390578063ce0c722a146103bb578063f8bbf27e146103e657610114565b80638331ed491461028657806385209ee0146102a25780638b7e4b13146102cd578063a035b1fe146102f8578063a4d66daf1461032357610114565b80631f7b6d32116100e75780631f7b6d32146101c557806326b3c68b146101f05780634897b9ac1461021b5780637150d8ae1461023257806374a348121461025d57610114565b806308551a5314610119578063089aa8a2146101445780630a61e2d91461016f57806316713b371461019a575b600080fd5b34801561012557600080fd5b5061012e610411565b60405161013b919061178c565b60405180910390f35b34801561015057600080fd5b50610159610437565b604051610166919061178c565b60405180910390f35b34801561017b57600080fd5b5061018461045d565b60405161019191906118cd565b60405180910390f35b3480156101a657600080fd5b506101af610463565b6040516101bc91906118cd565b60405180910390f35b3480156101d157600080fd5b506101da610469565b6040516101e791906118cd565b60405180910390f35b3480156101fc57600080fd5b5061020561046f565b60405161021291906118cd565b60405180910390f35b34801561022757600080fd5b50610230610475565b005b34801561023e57600080fd5b506102476105d0565b604051610254919061178c565b60405180910390f35b34801561026957600080fd5b50610284600480360381019061027f919061159e565b6105f6565b005b6102a0600480360381019061029b91906114ee565b6107b0565b005b3480156102ae57600080fd5b506102b7610acd565b6040516102c491906117d0565b60405180910390f35b3480156102d957600080fd5b506102e2610ae0565b6040516102ef91906117eb565b60405180910390f35b34801561030457600080fd5b5061030d610b6e565b60405161031a91906118cd565b60405180910390f35b34801561032f57600080fd5b50610338610b74565b60405161034591906118cd565b60405180910390f35b34801561035a57600080fd5b50610363610b7a565b005b34801561037157600080fd5b5061037a610d2a565b60405161038791906118cd565b60405180910390f35b34801561039c57600080fd5b506103a5610d30565b6040516103b291906118cd565b60405180910390f35b3480156103c757600080fd5b506103d0610d36565b6040516103dd919061178c565b60405180910390f35b3480156103f257600080fd5b506103fb610d5c565b60405161040891906118cd565b60405180910390f35b600e60009054906101000a900473ffffffffffffffffffffffffffffffffffffffff1681565b600060029054906101000a900473ffffffffffffffffffffffffffffffffffffffff1681565b60035481565b60045481565b60095481565b600a5481565b60011515601260003373ffffffffffffffffffffffffffffffffffffffff1673ffffffffffffffffffffffffffffffffffffffff16815260200190815260200160002060009054906101000a900460ff16151514610508576040517f08c379a00000000000000000000000000000000000000000000000000000000081526004016104ff9061180d565b60405180910390fd5b6000600c544261051891906119e5565b9050600080600954831061052f576000915061055a565b6009548360095461054091906119e5565b60065461054d919061198b565b610557919061195a565b91505b8160065461056891906119e5565b90506105748183610d62565b6003600560146101000a81548160ff0219169083600381111561059a57610599611b89565b5b02179055507ff5e1a452bb76d7335225182a97ad694be2c7b4b5d75dcffb67ddf15db95f484460405160405180910390a1505050565b600d60009054906101000a900473ffffffffffffffffffffffffffffffffffffffff1681565b600060019054906101000a900460ff168061061c575060008054906101000a900460ff16155b61065b576040517f08c379a00000000000000000000000000000000000000000000000000000000081526004016106529061186d565b60405180910390fd5b60008060019054906101000a900460ff1615905080156106ab576001600060016101000a81548160ff02191690831515021790555060016000806101000a81548160ff0219169083151502179055505b8860068190555087600781905550866008819055508560098190555083600e60006101000a81548173ffffffffffffffffffffffffffffffffffffffff021916908373ffffffffffffffffffffffffffffffffffffffff16021790555084600b8190555082600f60006101000a81548173ffffffffffffffffffffffffffffffffffffffff021916908373ffffffffffffffffffffffffffffffffffffffff1602179055506000600560146101000a81548160ff0219169083600381111561077657610775611b89565b5b021790555061078482610f0a565b80156107a55760008060016101000a81548160ff0219169083151502179055505b505050505050505050565b600060038111156107c4576107c3611b89565b5b600560149054906101000a900460ff1660038111156107e6576107e5611b89565b5b14610826576040517f08c379a000000000000000000000000000000000000000000000000000000000815260040161081d9061184d565b60405180910390fd5b836011908051906020019061083c929190611345565b5082600d60006101000a81548173ffffffffffffffffffffffffffffffffffffffff021916908373ffffffffffffffffffffffffffffffffffffffff16021790555081600f60006101000a81548173ffffffffffffffffffffffffffffffffffffffff021916908373ffffffffffffffffffffffffffffffffffffffff160217905550610910600e60009054906101000a900473ffffffffffffffffffffffffffffffffffffffff16600d60009054906101000a900473ffffffffffffffffffffffffffffffffffffffff16600654610fb1565b6001151581151514156109bd576001601260008473ffffffffffffffffffffffffffffffffffffffff1673ffffffffffffffffffffffffffffffffffffffff16815260200190815260200160002060006101000a81548160ff021916908315150217905550606434146109b8576040517f08c379a00000000000000000000000000000000000000000000000000000000081526004016109af9061188d565b60405180910390fd5b610a90565b6001601260008573ffffffffffffffffffffffffffffffffffffffff1673ffffffffffffffffffffffffffffffffffffffff16815260200190815260200160002060006101000a81548160ff021916908315150217905550600160126000600e60009054906101000a900473ffffffffffffffffffffffffffffffffffffffff1673ffffffffffffffffffffffffffffffffffffffff1673ffffffffffffffffffffffffffffffffffffffff16815260200190815260200160002060006101000a81548160ff0219169083151502179055505b7f0c00d1d6cea0bd55f7d3b6e92ef60237b117b050185fc2816c708fd45f45e5bb33604051610abf919061178c565b60405180910390a150505050565b600560149054906101000a900460ff1681565b60118054610aed90611ac8565b80601f0160208091040260200160405190810160405280929190818152602001828054610b1990611ac8565b8015610b665780601f10610b3b57610100808354040283529160200191610b66565b820191906000526020600020905b815481529060010190602001808311610b4957829003601f168201915b505050505081565b60065481565b60075481565b6000610b8461103f565b14610bc4576040517f08c379a0000000000000000000000000000000000000000000000000000000008152600401610bbb9061182d565b60405180910390fd5b6001151560126000600d60009054906101000a900473ffffffffffffffffffffffffffffffffffffffff1673ffffffffffffffffffffffffffffffffffffffff1673ffffffffffffffffffffffffffffffffffffffff16815260200190815260200160002060009054906101000a900460ff1615151480610cb757506001151560126000600f60009054906101000a900473ffffffffffffffffffffffffffffffffffffffff1673ffffffffffffffffffffffffffffffffffffffff1673ffffffffffffffffffffffffffffffffffffffff16815260200190815260200160002060009054906101000a900460ff161515145b610cf6576040517f08c379a0000000000000000000000000000000000000000000000000000000008152600401610ced906118ad565b60405180910390fd5b42600c819055506002600560146101000a81548160ff02191690836003811115610d2357610d22611b89565b5b0217905550565b60085481565b600c5481565b600160009054906101000a900473ffffffffffffffffffffffffffffffffffffffff1681565b600b5481565b600560009054906101000a900473ffffffffffffffffffffffffffffffffffffffff1673ffffffffffffffffffffffffffffffffffffffff1663a9059cbb600160009054906101000a900473ffffffffffffffffffffffffffffffffffffffff16846040518363ffffffff1660e01b8152600401610de19291906117a7565b602060405180830381600087803b158015610dfb57600080fd5b505af1158015610e0f573d6000803e3d6000fd5b505050506040513d601f19601f82011682018060405250810190610e3391906114c1565b50600560009054906101000a900473ffffffffffffffffffffffffffffffffffffffff1673ffffffffffffffffffffffffffffffffffffffff1663a9059cbb600060029054906101000a900473ffffffffffffffffffffffffffffffffffffffff16836040518363ffffffff1660e01b8152600401610eb39291906117a7565b602060405180830381600087803b158015610ecd57600080fd5b505af1158015610ee1573d6000803e3d6000fd5b505050506040513d601f19601f82011682018060405250810190610f0591906114c1565b505050565b80600260006101000a81548173ffffffffffffffffffffffffffffffffffffffff021916908373ffffffffffffffffffffffffffffffffffffffff160217905550600260009054906101000a900473ffffffffffffffffffffffffffffffffffffffff16600560006101000a81548173ffffffffffffffffffffffffffffffffffffffff021916908373ffffffffffffffffffffffffffffffffffffffff16021790555050565b82600160006101000a81548173ffffffffffffffffffffffffffffffffffffffff021916908373ffffffffffffffffffffffffffffffffffffffff16021790555081600060026101000a81548173ffffffffffffffffffffffffffffffffffffffff021916908373ffffffffffffffffffffffffffffffffffffffff16021790555080600381905550505050565b6000600354600560009054906101000a900473ffffffffffffffffffffffffffffffffffffffff1673ffffffffffffffffffffffffffffffffffffffff166370a08231306040518263ffffffff1660e01b815260040161109f919061178c565b60206040518083038186803b1580156110b757600080fd5b505afa1580156110cb573d6000803e3d6000fd5b505050506040513d601f19601f820116820180604052508101906110ef9190611571565b111561128757600560009054906101000a900473ffffffffffffffffffffffffffffffffffffffff1673ffffffffffffffffffffffffffffffffffffffff1663a9059cbb600060029054906101000a900473ffffffffffffffffffffffffffffffffffffffff16600354600560009054906101000a900473ffffffffffffffffffffffffffffffffffffffff1673ffffffffffffffffffffffffffffffffffffffff166370a08231306040518263ffffffff1660e01b81526004016111b4919061178c565b60206040518083038186803b1580156111cc57600080fd5b505afa1580156111e0573d6000803e3d6000fd5b505050506040513d601f19601f820116820180604052508101906112049190611571565b61120e91906119e5565b6040518363ffffffff1660e01b815260040161122b9291906117a7565b602060405180830381600087803b15801561124557600080fd5b505af1158015611259573d6000803e3d6000fd5b505050506040513d601f19601f8201168201806040525081019061127d91906114c1565b5060009050611342565b600560009054906101000a900473ffffffffffffffffffffffffffffffffffffffff1673ffffffffffffffffffffffffffffffffffffffff166370a08231306040518263ffffffff1660e01b81526004016112e2919061178c565b60206040518083038186803b1580156112fa57600080fd5b505afa15801561130e573d6000803e3d6000fd5b505050506040513d601f19601f820116820180604052508101906113329190611571565b60035461133f91906119e5565b90505b90565b82805461135190611ac8565b90600052602060002090601f01602090048101928261137357600085556113ba565b82601f1061138c57805160ff19168380011785556113ba565b828001600101855582156113ba579182015b828111156113b957825182559160200191906001019061139e565b5b5090506113c791906113cb565b5090565b5b808211156113e45760008160009055506001016113cc565b5090565b60006113fb6113f68461190d565b6118e8565b90508281526020810184848401111561141757611416611c1b565b5b611422848285611a86565b509392505050565b60008135905061143981611ddd565b92915050565b60008135905061144e81611df4565b92915050565b60008151905061146381611df4565b92915050565b600082601f83011261147e5761147d611c16565b5b813561148e8482602086016113e8565b91505092915050565b6000813590506114a681611e0b565b92915050565b6000815190506114bb81611e0b565b92915050565b6000602082840312156114d7576114d6611c25565b5b60006114e584828501611454565b91505092915050565b6000806000806080858703121561150857611507611c25565b5b600085013567ffffffffffffffff81111561152657611525611c20565b5b61153287828801611469565b94505060206115438782880161142a565b93505060406115548782880161142a565b92505060606115658782880161143f565b91505092959194509250565b60006020828403121561158757611586611c25565b5b6000611595848285016114ac565b91505092915050565b600080600080600080600080610100898b0312156115bf576115be611c25565b5b60006115cd8b828c01611497565b98505060206115de8b828c01611497565b97505060406115ef8b828c01611497565b96505060606116008b828c01611497565b95505060806116118b828c01611497565b94505060a06116228b828c0161142a565b93505060c06116338b828c0161142a565b92505060e06116448b828c0161142a565b9150509295985092959890939650565b61165d81611a19565b82525050565b61166c81611a74565b82525050565b600061167d8261193e565b6116878185611949565b9350611697818560208601611a95565b6116a081611c2a565b840191505092915050565b60006116b8603183611949565b91506116c382611c3b565b604082019050919050565b60006116db602e83611949565b91506116e682611c8a565b604082019050919050565b60006116fe602583611949565b915061170982611cd9565b604082019050919050565b6000611721602e83611949565b915061172c82611d28565b604082019050919050565b6000611744601783611949565b915061174f82611d77565b602082019050919050565b6000611767601a83611949565b915061177282611da0565b602082019050919050565b61178681611a6a565b82525050565b60006020820190506117a16000830184611654565b92915050565b60006040820190506117bc6000830185611654565b6117c9602083018461177d565b9392505050565b60006020820190506117e56000830184611663565b92915050565b600060208201905081810360008301526118058184611672565b905092915050565b60006020820190508181036000830152611826816116ab565b9050919050565b60006020820190508181036000830152611846816116ce565b9050919050565b60006020820190508181036000830152611866816116f1565b9050919050565b6000602082019050818103600083015261188681611714565b9050919050565b600060208201905081810360008301526118a681611737565b9050919050565b600060208201905081810360008301526118c68161175a565b9050919050565b60006020820190506118e2600083018461177d565b92915050565b60006118f2611903565b90506118fe8282611afa565b919050565b6000604051905090565b600067ffffffffffffffff82111561192857611927611be7565b5b61193182611c2a565b9050602081019050919050565b600081519050919050565b600082825260208201905092915050565b600061196582611a6a565b915061197083611a6a565b9250826119805761197f611b5a565b5b828204905092915050565b600061199682611a6a565b91506119a183611a6a565b9250817fffffffffffffffffffffffffffffffffffffffffffffffffffffffffffffffff04831182151516156119da576119d9611b2b565b5b828202905092915050565b60006119f082611a6a565b91506119fb83611a6a565b925082821015611a0e57611a0d611b2b565b5b828203905092915050565b6000611a2482611a4a565b9050919050565b60008115159050919050565b6000819050611a4582611dc9565b919050565b600073ffffffffffffffffffffffffffffffffffffffff82169050919050565b6000819050919050565b6000611a7f82611a37565b9050919050565b82818337600083830152505050565b60005b83811015611ab3578082015181840152602081019050611a98565b83811115611ac2576000848401525b50505050565b60006002820490506001821680611ae057607f821691505b60208210811415611af457611af3611bb8565b5b50919050565b611b0382611c2a565b810181811067ffffffffffffffff82111715611b2257611b21611be7565b5b80604052505050565b7f4e487b7100000000000000000000000000000000000000000000000000000000600052601160045260246000fd5b7f4e487b7100000000000000000000000000000000000000000000000000000000600052601260045260246000fd5b7f4e487b7100000000000000000000000000000000000000000000000000000000600052602160045260246000fd5b7f4e487b7100000000000000000000000000000000000000000000000000000000600052602260045260246000fd5b7f4e487b7100000000000000000000000000000000000000000000000000000000600052604160045260246000fd5b600080fd5b600080fd5b600080fd5b600080fd5b6000601f19601f8301169050919050565b7f746869732061646472657373206973206e6f7420616c6c6f77656420746f206360008201527f616c6c20746869732066756e6374696f6e000000000000000000000000000000602082015250565b7f6c756d6572696e20746f6b656e73206e65656420746f2062652073656e74207460008201527f6f2074686520636f6e7472616374000000000000000000000000000000000000602082015250565b7f636f6e7472616374206973206e6f7420696e20616e20617661696c61626c652060008201527f7374617465000000000000000000000000000000000000000000000000000000602082015250565b7f496e697469616c697a61626c653a20636f6e747261637420697320616c72656160008201527f647920696e697469616c697a6564000000000000000000000000000000000000602082015250565b7f76616c69646174696f6e20666565206e6f742073656e74000000000000000000600082015250565b7f74686520627579657220686173206e6f74206265656e20736574000000000000600082015250565b60048110611dda57611dd9611b89565b5b50565b611de681611a19565b8114611df157600080fd5b50565b611dfd81611a2b565b8114611e0857600080fd5b50565b611e1481611a6a565b8114611e1f57600080fd5b5056fea264697066735822122023bb2ded661476373571aa61a2d5aa7013f38f8dd5207376d08bfa81e1705ce964736f6c63430008070033",
  "immutableReferences": {},
  "source": "//SPDX-License-Identifier: UNLICENSED\n\npragma solidity >0.8.0;\n\nimport \"@openzeppelin/contracts/proxy/utils/Initializable.sol\";\nimport \"./Escrow.sol\";\n\n\ncontract Implementation is Initializable, Escrow{\n  enum ContractState {\n    Available,\n    Active,\n    Running,\n    Complete\n  }\n\n  ContractState public contractState; \n  uint public price; //cost to purchase contract\n  uint public limit; //max th provided\n  uint public speed; //th/s of contract\n  uint public length; //how long the contract will last in seconds\n  uint public port; //port provided by buyer\n  uint public validationFee; //validator fee, may not be included in the contract depending on future state of documentation\n  uint public startingBlockTimestamp; //the timestamp of the block when the contract was purchased\n  address public buyer; //address of the current purchaser of the contract\n  address public seller; //address of the seller of the contract\n  address contractManager; //should be hardcoded somewhere...\n  address penaltyTarget; //will only have a value assigned if a a penalty is called\n  string public encryptedPoolData; //encrypted data for pool target info\n\n  mapping(address => bool) approved;\n\n  function initialize(\n    uint _price,\n    uint _limit,\n    uint _speed,\n    uint _length,\n    uint _validationFee,\n    address _seller,\n    address _contractManager,\n    address _lmn\n  ) public initializer(){\n    price = _price;\n    limit = _limit;\n    speed = _speed;\n    length = _length;\n    seller = _seller;\n    validationFee = _validationFee;\n    contractManager = _contractManager;\n    contractState = ContractState.Available;\n    setParameters(_lmn);\n  }\n\n\n  modifier onlyApproved() { \n    require(approved[msg.sender] == true, \"this address is not allowed to call this function\");\n    _;\n  }\n\n  event contractPurchased(address _buyer);\n  event contractClosed();\n  \n\n  //need to remove lmn from contract call, also need to remove from webfacing\n  function setPurchaseContract( string memory _encryptedPoolData, address _buyer, address _validator, bool _withValidator) \n    payable external {\n    require(contractState == ContractState.Available, \"contract is not in an available state\");\n    encryptedPoolData = _encryptedPoolData;\n    buyer = _buyer;\n    contractManager = _validator;\n    createEscrow(seller, buyer, price);\n    if (_withValidator == true) {\n      approved[_validator] = true;\n      require(msg.value == 100, \"validation fee not sent\");\n    } else {\n      approved[_buyer] = true;\n      approved[seller] = true;\n    }\n    emit contractPurchased(msg.sender); //might need to replace this with an additional passed in variable for the contract purchaser\n  }\n\n\n  //this is the closeout function which will be called upon successful completion of the contract\n  function setContractCloseOut() external onlyApproved {\n    uint durationOfContract = block.timestamp - startingBlockTimestamp;\n    uint buyerPayOut;\n    uint sellerPayOut;\n    if (durationOfContract >= length) {\n      buyerPayOut = 0;\n    } else {\n      buyerPayOut = uint(price*uint(length-durationOfContract))/uint(length); \n    }\n    sellerPayOut = price - buyerPayOut;\n    withdrawFunds(sellerPayOut, buyerPayOut);\n    contractState = ContractState.Complete;\n    emit contractClosed();\n  }\n\n  //function which checks to see if lumerin has been sent to the contracts address\n  function setFundContract() external {\n    //if escrow is fully funded, set contract state to running\n    require(dueAmount() == 0, \"lumerin tokens need to be sent to the contract\");\n    require(approved[buyer] == true || approved[contractManager] == true, \"the buyer has not been set\");\n    startingBlockTimestamp = block.timestamp;\n    contractState = ContractState.Running;\n  }\n}\n\n",
  "sourcePath": "/Users/joshkean/Documents/deployments/support_contracts/validator/contracts/Implementation.sol",
  "compiler": {
    "name": "solc",
    "version": "0.8.7+commit.e28d00a7.Emscripten.clang"
  },
  "schemaVersion": "3.4.2",
  "updatedAt": "2021-11-03T16:45:26.206Z",
  "devdoc": {
    "kind": "dev",
    "methods": {},
    "version": 1
  },
  "userdoc": {
    "kind": "user",
    "methods": {},
    "version": 1
  }
}