{
  "contractName": "Implementation",
  "abi": [
    {
      "anonymous": false,
      "inputs": [
        {
          "indexed": false,
          "internalType": "string",
          "name": "newCipherText",
          "type": "string"
        }
      ],
      "name": "cipherTextUpdated",
      "type": "event"
    },
    {
      "anonymous": false,
      "inputs": [],
      "name": "contractClosed",
      "type": "event"
    },
    {
      "anonymous": false,
      "inputs": [
        {
          "indexed": true,
          "internalType": "address",
          "name": "_buyer",
          "type": "address"
        }
      ],
      "name": "contractPurchased",
      "type": "event"
    },
    {
      "anonymous": false,
      "inputs": [],
      "name": "purchaseInfoUpdated",
      "type": "event"
    },
    {
      "inputs": [],
      "name": "buyer",
      "outputs": [
        {
          "internalType": "address",
          "name": "",
          "type": "address"
        }
      ],
      "stateMutability": "view",
      "type": "function"
    },
    {
      "inputs": [],
      "name": "contractState",
      "outputs": [
        {
          "internalType": "enum Implementation.ContractState",
          "name": "",
          "type": "uint8"
        }
      ],
      "stateMutability": "view",
      "type": "function"
    },
    {
      "inputs": [],
      "name": "contractTotal",
      "outputs": [
        {
          "internalType": "uint256",
          "name": "",
          "type": "uint256"
        }
      ],
      "stateMutability": "view",
      "type": "function"
    },
    {
      "inputs": [],
      "name": "encryptedPoolData",
      "outputs": [
        {
          "internalType": "string",
          "name": "",
          "type": "string"
        }
      ],
      "stateMutability": "view",
      "type": "function"
    },
    {
      "inputs": [],
      "name": "escrow_purchaser",
      "outputs": [
        {
          "internalType": "address",
          "name": "",
          "type": "address"
        }
      ],
      "stateMutability": "view",
      "type": "function"
    },
    {
      "inputs": [],
      "name": "escrow_seller",
      "outputs": [
        {
          "internalType": "address",
          "name": "",
          "type": "address"
        }
      ],
      "stateMutability": "view",
      "type": "function"
    },
    {
      "inputs": [],
      "name": "length",
      "outputs": [
        {
          "internalType": "uint256",
          "name": "",
          "type": "uint256"
        }
      ],
      "stateMutability": "view",
      "type": "function"
    },
    {
      "inputs": [],
      "name": "limit",
      "outputs": [
        {
          "internalType": "uint256",
          "name": "",
          "type": "uint256"
        }
      ],
      "stateMutability": "view",
      "type": "function"
    },
    {
      "inputs": [],
      "name": "price",
      "outputs": [
        {
          "internalType": "uint256",
          "name": "",
          "type": "uint256"
        }
      ],
      "stateMutability": "view",
      "type": "function"
    },
    {
      "inputs": [],
      "name": "receivedTotal",
      "outputs": [
        {
          "internalType": "uint256",
          "name": "",
          "type": "uint256"
        }
      ],
      "stateMutability": "view",
      "type": "function"
    },
    {
      "inputs": [],
      "name": "seller",
      "outputs": [
        {
          "internalType": "address",
          "name": "",
          "type": "address"
        }
      ],
      "stateMutability": "view",
      "type": "function"
    },
    {
      "inputs": [],
      "name": "speed",
      "outputs": [
        {
          "internalType": "uint256",
          "name": "",
          "type": "uint256"
        }
      ],
      "stateMutability": "view",
      "type": "function"
    },
    {
      "inputs": [],
      "name": "startingBlockTimestamp",
      "outputs": [
        {
          "internalType": "uint256",
          "name": "",
          "type": "uint256"
        }
      ],
      "stateMutability": "view",
      "type": "function"
    },
    {
      "inputs": [
        {
          "internalType": "uint256",
          "name": "_price",
          "type": "uint256"
        },
        {
          "internalType": "uint256",
          "name": "_limit",
          "type": "uint256"
        },
        {
          "internalType": "uint256",
          "name": "_speed",
          "type": "uint256"
        },
        {
          "internalType": "uint256",
          "name": "_length",
          "type": "uint256"
        },
        {
          "internalType": "address",
          "name": "_seller",
          "type": "address"
        },
        {
          "internalType": "address",
          "name": "_lmn",
          "type": "address"
        },
        {
          "internalType": "address",
          "name": "_cloneFactory",
          "type": "address"
        },
        {
          "internalType": "address",
          "name": "_validator",
          "type": "address"
        }
      ],
      "name": "initialize",
      "outputs": [],
      "stateMutability": "nonpayable",
      "type": "function"
    },
    {
      "inputs": [],
      "name": "getPublicVariables",
      "outputs": [
        {
          "internalType": "enum Implementation.ContractState",
          "name": "",
          "type": "uint8"
        },
        {
          "internalType": "uint256",
          "name": "",
          "type": "uint256"
        },
        {
          "internalType": "uint256",
          "name": "",
          "type": "uint256"
        },
        {
          "internalType": "uint256",
          "name": "",
          "type": "uint256"
        },
        {
          "internalType": "uint256",
          "name": "",
          "type": "uint256"
        },
        {
          "internalType": "string",
          "name": "",
          "type": "string"
        }
      ],
      "stateMutability": "view",
      "type": "function"
    },
    {
      "inputs": [
        {
          "internalType": "string",
          "name": "_encryptedPoolData",
          "type": "string"
        },
        {
          "internalType": "address",
          "name": "_buyer",
          "type": "address"
        }
      ],
      "name": "setPurchaseContract",
      "outputs": [],
      "stateMutability": "nonpayable",
      "type": "function"
    },
    {
      "inputs": [
        {
          "internalType": "string",
          "name": "_newEncryptedPoolData",
          "type": "string"
        }
      ],
      "name": "setUpdateMiningInformation",
      "outputs": [],
      "stateMutability": "nonpayable",
      "type": "function"
    },
    {
      "inputs": [
        {
          "internalType": "uint256",
          "name": "_price",
          "type": "uint256"
        },
        {
          "internalType": "uint256",
          "name": "_limit",
          "type": "uint256"
        },
        {
          "internalType": "uint256",
          "name": "_speed",
          "type": "uint256"
        },
        {
          "internalType": "uint256",
          "name": "_length",
          "type": "uint256"
        },
        {
          "internalType": "uint256",
          "name": "_closeoutType",
          "type": "uint256"
        }
      ],
      "name": "setUpdatePurchaseInformation",
      "outputs": [],
      "stateMutability": "nonpayable",
      "type": "function"
    },
    {
      "inputs": [
        {
          "internalType": "uint256",
          "name": "closeOutType",
          "type": "uint256"
        }
      ],
      "name": "setContractCloseOut",
      "outputs": [],
      "stateMutability": "nonpayable",
      "type": "function"
    }
  ],
  "bytecode": "0x608060405234801561001057600080fd5b50612594806100206000396000f3fe608060405234801561001057600080fd5b50600436106101215760003560e01c80638b7e4b13116100ad578063c5095d6811610071578063c5095d68146102c4578063ca3225fa146102e2578063ce0c722a14610305578063ddcb1bf214610323578063f1a6e3011461033f57610121565b80638b7e4b13146102305780638e2e6d5d1461024e578063a035b1fe1461026a578063a4d66daf14610288578063c20906ac146102a657610121565b80631f7b6d32116100f45780631f7b6d321461019e5780633a5d4213146101bc5780637150d8ae146101d8578063719e6b5b146101f657806385209ee01461021257610121565b806308551a5314610126578063089aa8a2146101445780630a61e2d91461016257806316713b3714610180575b600080fd5b61012e61035b565b60405161013b9190611b08565b60405180910390f35b61014c610381565b6040516101599190611b08565b60405180910390f35b61016a6103a7565b6040516101779190611d71565b60405180910390f35b6101886103ad565b6040516101959190611d71565b60405180910390f35b6101a66103b3565b6040516101b39190611d71565b60405180910390f35b6101d660048036038101906101d191906117cd565b6103b9565b005b6101e06105ad565b6040516101ed9190611b08565b60405180910390f35b610210600480360381019061020b91906116ce565b6105d3565b005b61021a610729565b6040516102279190611b4c565b60405180910390f35b61023861073c565b6040516102459190611bcf565b60405180910390f35b61026860048036038101906102639190611773565b6107ca565b005b610272610b44565b60405161027f9190611d71565b60405180910390f35b610290610b4a565b60405161029d9190611d71565b60405180910390f35b6102ae610b50565b6040516102bb9190611d71565b60405180910390f35b6102cc610b56565b6040516102d99190611d71565b60405180910390f35b6102ea610b5c565b6040516102fc96959493929190611b67565b60405180910390f35b61030d610c24565b60405161031a9190611b08565b60405180910390f35b61033d60048036038101906103389190611717565b610c4a565b005b61035960048036038101906103549190611883565b610e72565b005b600c60009054906101000a900473ffffffffffffffffffffffffffffffffffffffff1681565b600060029054906101000a900473ffffffffffffffffffffffffffffffffffffffff1681565b60035481565b60045481565b60095481565b600060019054906101000a900460ff16806103df575060008054906101000a900460ff16155b61041e576040517f08c379a000000000000000000000000000000000000000000000000000000000815260040161041590611cf1565b60405180910390fd5b60008060019054906101000a900460ff16159050801561046e576001600060016101000a81548160ff02191690831515021790555060016000806101000a81548160ff0219169083151502179055505b8860068190555087600781905550866008819055508560098190555084600c60006101000a81548173ffffffffffffffffffffffffffffffffffffffff021916908373ffffffffffffffffffffffffffffffffffffffff16021790555082600d60006101000a81548173ffffffffffffffffffffffffffffffffffffffff021916908373ffffffffffffffffffffffffffffffffffffffff16021790555081600e60006101000a81548173ffffffffffffffffffffffffffffffffffffffff021916908373ffffffffffffffffffffffffffffffffffffffff1602179055506000600560146101000a81548160ff021916908360018111156105735761057261202d565b5b02179055506105818461101d565b80156105a25760008060016101000a81548160ff0219169083151502179055505b505050505050505050565b600b60009054906101000a900473ffffffffffffffffffffffffffffffffffffffff1681565b600b60009054906101000a900473ffffffffffffffffffffffffffffffffffffffff1673ffffffffffffffffffffffffffffffffffffffff163373ffffffffffffffffffffffffffffffffffffffff1614610663576040517f08c379a000000000000000000000000000000000000000000000000000000000815260040161065a90611bf1565b60405180910390fd5b6001808111156106765761067561202d565b5b600560149054906101000a900460ff1660018111156106985761069761202d565b5b146106d8576040517f08c379a00000000000000000000000000000000000000000000000000000000081526004016106cf90611d31565b60405180910390fd5b80600f90805190602001906106ee92919061153a565b507f2301ef7d9f42b857543faf9e285b5807e028d4ae99810ea7fe0aadda3a717e9d8160405161071e9190611bcf565b60405180910390a150565b600560149054906101000a900460ff1681565b600f805461074990611f6c565b80601f016020809104026020016040519081016040528092919081815260200182805461077590611f6c565b80156107c25780601f10610797576101008083540402835291602001916107c2565b820191906000526020600020905b8154815290600101906020018083116107a557829003601f168201915b505050505081565b600081141561095157600b60009054906101000a900473ffffffffffffffffffffffffffffffffffffffff1673ffffffffffffffffffffffffffffffffffffffff163373ffffffffffffffffffffffffffffffffffffffff16148061087c5750600e60009054906101000a900473ffffffffffffffffffffffffffffffffffffffff1673ffffffffffffffffffffffffffffffffffffffff163373ffffffffffffffffffffffffffffffffffffffff16145b6108bb576040517f08c379a00000000000000000000000000000000000000000000000000000000081526004016108b290611c71565b60405180910390fd5b6000600a54426108cb9190611e89565b90506000600954826009546108e09190611e89565b6006546108ed9190611e2f565b6108f79190611dfe565b90506000816006546109099190611e89565b905061091581836110c4565b61091d61126c565b7ff5e1a452bb76d7335225182a97ad694be2c7b4b5d75dcffb67ddf15db95f484460405160405180910390a1505050610b41565b6001811415610a38576000600a544261096a9190611e89565b905060006009548260095461097f9190611e89565b60065461098c9190611e2f565b6109969190611dfe565b9050600c60009054906101000a900473ffffffffffffffffffffffffffffffffffffffff1673ffffffffffffffffffffffffffffffffffffffff163373ffffffffffffffffffffffffffffffffffffffff1614610a28576040517f08c379a0000000000000000000000000000000000000000000000000000000008152600401610a1f90611d51565b60405180910390fd5b610a3181611322565b5050610b40565b6002811480610a475750600381145b15610afb576000600a5442610a5c9190611e89565b9050600954811015610aa3576040517f08c379a0000000000000000000000000000000000000000000000000000000008152600401610a9a90611c11565b60405180910390fd5b6003821415610ac1576000806006549050610abe81836110c4565b50505b610ac961126c565b7ff5e1a452bb76d7335225182a97ad694be2c7b4b5d75dcffb67ddf15db95f484460405160405180910390a150610b3f565b60048110610b3e576040517f08c379a0000000000000000000000000000000000000000000000000000000008152600401610b3590611cd1565b60405180910390fd5b5b5b5b50565b60065481565b60075481565b60085481565b600a5481565b60008060008060006060600560149054906101000a900460ff16600654600754600854600954600f808054610b9090611f6c565b80601f0160208091040260200160405190810160405280929190818152602001828054610bbc90611f6c565b8015610c095780601f10610bde57610100808354040283529160200191610c09565b820191906000526020600020905b815481529060010190602001808311610bec57829003601f168201915b50505050509050955095509550955095509550909192939495565b600160009054906101000a900473ffffffffffffffffffffffffffffffffffffffff1681565b60006001811115610c5e57610c5d61202d565b5b600560149054906101000a900460ff166001811115610c8057610c7f61202d565b5b14610cc0576040517f08c379a0000000000000000000000000000000000000000000000000000000008152600401610cb790611c91565b60405180910390fd5b600d60009054906101000a900473ffffffffffffffffffffffffffffffffffffffff1673ffffffffffffffffffffffffffffffffffffffff163373ffffffffffffffffffffffffffffffffffffffff1614610d50576040517f08c379a0000000000000000000000000000000000000000000000000000000008152600401610d4790611cb1565b60405180910390fd5b81600f9080519060200190610d6692919061153a565b5080600b60006101000a81548173ffffffffffffffffffffffffffffffffffffffff021916908373ffffffffffffffffffffffffffffffffffffffff16021790555042600a819055506001600560146101000a81548160ff02191690836001811115610dd557610dd461202d565b5b0217905550610e2b600c60009054906101000a900473ffffffffffffffffffffffffffffffffffffffff16600b60009054906101000a900473ffffffffffffffffffffffffffffffffffffffff166006546114ac565b3373ffffffffffffffffffffffffffffffffffffffff167f0c00d1d6cea0bd55f7d3b6e92ef60237b117b050185fc2816c708fd45f45e5bb60405160405180910390a25050565b600c60009054906101000a900473ffffffffffffffffffffffffffffffffffffffff1673ffffffffffffffffffffffffffffffffffffffff163373ffffffffffffffffffffffffffffffffffffffff1614610f02576040517f08c379a0000000000000000000000000000000000000000000000000000000008152600401610ef990611d11565b60405180910390fd5b600180811115610f1557610f1461202d565b5b600560149054906101000a900460ff166001811115610f3757610f3661202d565b5b14610f77576040517f08c379a0000000000000000000000000000000000000000000000000000000008152600401610f6e90611c31565b60405180910390fd5b6002811480610f865750600381145b610fc5576040517f08c379a0000000000000000000000000000000000000000000000000000000008152600401610fbc90611c51565b60405180910390fd5b84600681905550836007819055508260088190555081600981905550610fea816107ca565b7f03e052767f275c0c51cc93a76255d42498341feb7a5beef7cc11fd57c5b6681860405160405180910390a15050505050565b80600260006101000a81548173ffffffffffffffffffffffffffffffffffffffff021916908373ffffffffffffffffffffffffffffffffffffffff160217905550600260009054906101000a900473ffffffffffffffffffffffffffffffffffffffff16600560006101000a81548173ffffffffffffffffffffffffffffffffffffffff021916908373ffffffffffffffffffffffffffffffffffffffff16021790555050565b600560009054906101000a900473ffffffffffffffffffffffffffffffffffffffff1673ffffffffffffffffffffffffffffffffffffffff1663a9059cbb600160009054906101000a900473ffffffffffffffffffffffffffffffffffffffff16846040518363ffffffff1660e01b8152600401611143929190611b23565b602060405180830381600087803b15801561115d57600080fd5b505af1158015611171573d6000803e3d6000fd5b505050506040513d601f19601f8201168201806040525081019061119591906116a1565b50600560009054906101000a900473ffffffffffffffffffffffffffffffffffffffff1673ffffffffffffffffffffffffffffffffffffffff1663a9059cbb600060029054906101000a900473ffffffffffffffffffffffffffffffffffffffff16836040518363ffffffff1660e01b8152600401611215929190611b23565b602060405180830381600087803b15801561122f57600080fd5b505af1158015611243573d6000803e3d6000fd5b505050506040513d601f19601f8201168201806040525081019061126791906116a1565b505050565b600c60009054906101000a900473ffffffffffffffffffffffffffffffffffffffff16600b60006101000a81548173ffffffffffffffffffffffffffffffffffffffff021916908373ffffffffffffffffffffffffffffffffffffffff16021790555060405180602001604052806000815250600f90805190602001906112f492919061153a565b506000600560146101000a81548160ff0219169083600181111561131b5761131a61202d565b5b0217905550565b600560009054906101000a900473ffffffffffffffffffffffffffffffffffffffff1673ffffffffffffffffffffffffffffffffffffffff1663a9059cbb600160009054906101000a900473ffffffffffffffffffffffffffffffffffffffff1683600560009054906101000a900473ffffffffffffffffffffffffffffffffffffffff1673ffffffffffffffffffffffffffffffffffffffff166370a08231306040518263ffffffff1660e01b81526004016113df9190611b08565b60206040518083038186803b1580156113f757600080fd5b505afa15801561140b573d6000803e3d6000fd5b505050506040513d601f19601f8201168201806040525081019061142f91906117a0565b6114399190611e89565b6040518363ffffffff1660e01b8152600401611456929190611b23565b602060405180830381600087803b15801561147057600080fd5b505af1158015611484573d6000803e3d6000fd5b505050506040513d601f19601f820116820180604052508101906114a891906116a1565b5050565b82600160006101000a81548173ffffffffffffffffffffffffffffffffffffffff021916908373ffffffffffffffffffffffffffffffffffffffff16021790555081600060026101000a81548173ffffffffffffffffffffffffffffffffffffffff021916908373ffffffffffffffffffffffffffffffffffffffff16021790555080600381905550505050565b82805461154690611f6c565b90600052602060002090601f01602090048101928261156857600085556115af565b82601f1061158157805160ff19168380011785556115af565b828001600101855582156115af579182015b828111156115ae578251825591602001919060010190611593565b5b5090506115bc91906115c0565b5090565b5b808211156115d95760008160009055506001016115c1565b5090565b60006115f06115eb84611db1565b611d8c565b90508281526020810184848401111561160c5761160b6120bf565b5b611617848285611f2a565b509392505050565b60008135905061162e81612519565b92915050565b60008151905061164381612530565b92915050565b600082601f83011261165e5761165d6120ba565b5b813561166e8482602086016115dd565b91505092915050565b60008135905061168681612547565b92915050565b60008151905061169b81612547565b92915050565b6000602082840312156116b7576116b66120c9565b5b60006116c584828501611634565b91505092915050565b6000602082840312156116e4576116e36120c9565b5b600082013567ffffffffffffffff811115611702576117016120c4565b5b61170e84828501611649565b91505092915050565b6000806040838503121561172e5761172d6120c9565b5b600083013567ffffffffffffffff81111561174c5761174b6120c4565b5b61175885828601611649565b92505060206117698582860161161f565b9150509250929050565b600060208284031215611789576117886120c9565b5b600061179784828501611677565b91505092915050565b6000602082840312156117b6576117b56120c9565b5b60006117c48482850161168c565b91505092915050565b600080600080600080600080610100898b0312156117ee576117ed6120c9565b5b60006117fc8b828c01611677565b985050602061180d8b828c01611677565b975050604061181e8b828c01611677565b965050606061182f8b828c01611677565b95505060806118408b828c0161161f565b94505060a06118518b828c0161161f565b93505060c06118628b828c0161161f565b92505060e06118738b828c0161161f565b9150509295985092959890939650565b600080600080600060a0868803121561189f5761189e6120c9565b5b60006118ad88828901611677565b95505060206118be88828901611677565b94505060406118cf88828901611677565b93505060606118e088828901611677565b92505060806118f188828901611677565b9150509295509295909350565b61190781611ebd565b82525050565b61191681611f18565b82525050565b600061192782611de2565b6119318185611ded565b9350611941818560208601611f39565b61194a816120ce565b840191505092915050565b6000611962604383611ded565b915061196d826120df565b606082019050919050565b6000611985602a83611ded565b915061199082612154565b604082019050919050565b60006119a8602b83611ded565b91506119b3826121a3565b604082019050919050565b60006119cb602883611ded565b91506119d6826121f2565b604082019050919050565b60006119ee603b83611ded565b91506119f982612241565b604082019050919050565b6000611a11602583611ded565b9150611a1c82612290565b604082019050919050565b6000611a34603a83611ded565b9150611a3f826122df565b604082019050919050565b6000611a57602983611ded565b9150611a628261232e565b604082019050919050565b6000611a7a602e83611ded565b9150611a858261237d565b604082019050919050565b6000611a9d604383611ded565b9150611aa8826123cc565b606082019050919050565b6000611ac0602883611ded565b9150611acb82612441565b604082019050919050565b6000611ae3604183611ded565b9150611aee82612490565b606082019050919050565b611b0281611f0e565b82525050565b6000602082019050611b1d60008301846118fe565b92915050565b6000604082019050611b3860008301856118fe565b611b456020830184611af9565b9392505050565b6000602082019050611b61600083018461190d565b92915050565b600060c082019050611b7c600083018961190d565b611b896020830188611af9565b611b966040830187611af9565b611ba36060830186611af9565b611bb06080830185611af9565b81810360a0830152611bc2818461191c565b9050979650505050505050565b60006020820190508181036000830152611be9818461191c565b905092915050565b60006020820190508181036000830152611c0a81611955565b9050919050565b60006020820190508181036000830152611c2a81611978565b9050919050565b60006020820190508181036000830152611c4a8161199b565b9050919050565b60006020820190508181036000830152611c6a816119be565b9050919050565b60006020820190508181036000830152611c8a816119e1565b9050919050565b60006020820190508181036000830152611caa81611a04565b9050919050565b60006020820190508181036000830152611cca81611a27565b9050919050565b60006020820190508181036000830152611cea81611a4a565b9050919050565b60006020820190508181036000830152611d0a81611a6d565b9050919050565b60006020820190508181036000830152611d2a81611a90565b9050919050565b60006020820190508181036000830152611d4a81611ab3565b9050919050565b60006020820190508181036000830152611d6a81611ad6565b9050919050565b6000602082019050611d866000830184611af9565b92915050565b6000611d96611da7565b9050611da28282611f9e565b919050565b6000604051905090565b600067ffffffffffffffff821115611dcc57611dcb61208b565b5b611dd5826120ce565b9050602081019050919050565b600081519050919050565b600082825260208201905092915050565b6000611e0982611f0e565b9150611e1483611f0e565b925082611e2457611e23611ffe565b5b828204905092915050565b6000611e3a82611f0e565b9150611e4583611f0e565b9250817fffffffffffffffffffffffffffffffffffffffffffffffffffffffffffffffff0483118215151615611e7e57611e7d611fcf565b5b828202905092915050565b6000611e9482611f0e565b9150611e9f83611f0e565b925082821015611eb257611eb1611fcf565b5b828203905092915050565b6000611ec882611eee565b9050919050565b60008115159050919050565b6000819050611ee982612505565b919050565b600073ffffffffffffffffffffffffffffffffffffffff82169050919050565b6000819050919050565b6000611f2382611edb565b9050919050565b82818337600083830152505050565b60005b83811015611f57578082015181840152602081019050611f3c565b83811115611f66576000848401525b50505050565b60006002820490506001821680611f8457607f821691505b60208210811415611f9857611f9761205c565b5b50919050565b611fa7826120ce565b810181811067ffffffffffffffff82111715611fc657611fc561208b565b5b80604052505050565b7f4e487b7100000000000000000000000000000000000000000000000000000000600052601160045260246000fd5b7f4e487b7100000000000000000000000000000000000000000000000000000000600052601260045260246000fd5b7f4e487b7100000000000000000000000000000000000000000000000000000000600052602160045260246000fd5b7f4e487b7100000000000000000000000000000000000000000000000000000000600052602260045260246000fd5b7f4e487b7100000000000000000000000000000000000000000000000000000000600052604160045260246000fd5b600080fd5b600080fd5b600080fd5b600080fd5b6000601f19601f8301169050919050565b7f74686973206163636f756e74206973206e6f7420617574686f72697a6564207460008201527f6f2075706461746520746865206369706865727465787420696e666f726d617460208201527f696f6e0000000000000000000000000000000000000000000000000000000000604082015250565b7f74686520636f6e7472616374206861732079657420746f20626520636172726960008201527f656420746f207465726d00000000000000000000000000000000000000000000602082015250565b7f74686973206973206163636f756e74206973206e6f7420696e2074686520727560008201527f6e6e696e67207374617465000000000000000000000000000000000000000000602082015250565b7f796f752063616e206f6e6c792075736520636c6f73656f7574206f7074696f6e60008201527f732032206f722033000000000000000000000000000000000000000000000000602082015250565b7f74686973206163636f756e74206973206e6f7420617574686f72697a6564207460008201527f6f207472696767657220616e206561726c7920636c6f73656f75740000000000602082015250565b7f636f6e7472616374206973206e6f7420696e20616e20617661696c61626c652060008201527f7374617465000000000000000000000000000000000000000000000000000000602082015250565b7f746869732061646472657373206973206e6f7420617070726f76656420746f2060008201527f63616c6c207468652070757263686173652066756e6374696f6e000000000000602082015250565b7f796f75206d757374206d616b6520612073656c656374696f6e2062657477656560008201527f6e203020616e6420330000000000000000000000000000000000000000000000602082015250565b7f496e697469616c697a61626c653a20636f6e747261637420697320616c72656160008201527f647920696e697469616c697a6564000000000000000000000000000000000000602082015250565b7f74686973206973206163636f756e74206973206e6f7420617574686f72697a6560008201527f6420746f207570646174652074686520636f6e747261637420706172616d657460208201527f6572730000000000000000000000000000000000000000000000000000000000604082015250565b7f74686520636f6e7472616374206973206e6f7420696e207468652072756e6e6960008201527f6e67207374617465000000000000000000000000000000000000000000000000602082015250565b7f74686973206163636f756e74206973206e6f7420617574686f72697a6564207460008201527f6f20747269676765722061206d69642d636f6e747261637420636c6f73656f7560208201527f7400000000000000000000000000000000000000000000000000000000000000604082015250565b600281106125165761251561202d565b5b50565b61252281611ebd565b811461252d57600080fd5b50565b61253981611ecf565b811461254457600080fd5b50565b61255081611f0e565b811461255b57600080fd5b5056fea2646970667358221220ba1439aa430dd9525ae40de55cf635616b0f0e7a568d1d6762d43be20532402664736f6c63430008070033",
  "immutableReferences": {},
  "source": "//SPDX-License-Identifier: UNLICENSED\n\npragma solidity >0.8.0;\n\nimport \"@openzeppelin/contracts/proxy/utils/Initializable.sol\";\nimport \"./Escrow.sol\";\n\n\n//MyToken is place holder for actual lumerin token, purely for testing purposes\ncontract Implementation is Initializable, Escrow{\n\tenum ContractState {\n\t\tAvailable,\n\t\tRunning\n\t}\n\n\tContractState public contractState;\n\tuint public price; //cost to purchase contract\n\t//consider deprecating limit variable since it can be obtained from speed and length/duration\n\tuint public limit; //max th provided\n\tuint public speed; //th/s of contract\n\tuint public length; //how long the contract will last in seconds\n\tuint public startingBlockTimestamp; //the timestamp of the block when the contract was purchased\n\taddress public buyer; //address of the current purchaser of the contract\n\taddress public seller; //address of the seller of the contract\n\taddress cloneFactory; //used to limit where the purchase can be made\n\taddress validator; //validator to be used. Can be set to 0 address if validator not being used\n\tstring public encryptedPoolData; //encrypted data for pool target info\n\n\tevent contractPurchased(address indexed _buyer); //make indexed\n\tevent contractClosed();\n\tevent purchaseInfoUpdated();\n\tevent cipherTextUpdated(string newCipherText);\n\n\n\tfunction initialize(\n\t\tuint _price,\n\t\tuint _limit,\n\t\tuint _speed,\n\t\tuint _length,\n\t\taddress _seller,\n\t\taddress _lmn,\n\t\taddress _cloneFactory, //used to restrict purchasing power to only the clonefactory\n\t\taddress _validator\n\t) public initializer(){\n\t\tprice = _price;\n\t\tlimit = _limit;\n\t\tspeed = _speed;\n\t\tlength = _length;\n\t\tseller = _seller;\n\t\tcloneFactory = _cloneFactory;\n\t\tvalidator = _validator;\n\t\tcontractState = ContractState.Available;\n\t\t/*\n\t\tinternal to the escrow contract. Used to initialize lumerin token\n\t\tand move tokens as contract logic dictates\n\t\t*/\n\t\tsetParameters(_lmn);\n\t}\n\n\t//for demo purposes, returns all public variables\n\tfunction getPublicVariables() \n\t\tpublic \n\t\tview \n\t\treturns (\n\t\t\tContractState,\n\t\t\tuint,\n\t\t\tuint,\n\t\t\tuint,\n\t\t\tuint,\n\t\t\tstring memory\n\t\t) {\n\t\t\treturn (\n\t\t\t\tcontractState,\n\t\t\t\tprice,\n\t\t\t\tlimit,\n\t\t\t\tspeed,\n\t\t\t\tlength,\n\t\t\t\tencryptedPoolData\n\t\t\t);\n\t\t}\n\n\t//function that the clone factory calls to purchase the contract\n\tfunction setPurchaseContract(\n\t\tstring memory _encryptedPoolData,\n\t\taddress _buyer\n\t)\n\tpublic {\n\t\trequire(contractState == ContractState.Available, \n\t\t\t\"contract is not in an available state\"\n\t\t       );\n\t\trequire(msg.sender == cloneFactory,\n\t\t\t\"this address is not approved to call the purchase function\"\n\t\t       );\n\t\tencryptedPoolData = _encryptedPoolData;\n\t\tbuyer = _buyer;\n\t\tstartingBlockTimestamp = block.timestamp;\n\t\tcontractState = ContractState.Running;\n\t\tcreateEscrow(seller, buyer, price);\n\t\temit contractPurchased(msg.sender);\n\t}\n\n\t//allows the buyers to update their mining pool information\n\t//during the lifecycle of the contract\n\tfunction setUpdateMiningInformation(string memory _newEncryptedPoolData) external {\n\t\trequire(msg.sender == buyer, \n\t\t\t\"this account is not authorized to update the ciphertext information\"\n\t\t       );\n\t\trequire(contractState == ContractState.Running, \n\t\t\t\"the contract is not in the running state\"\n\t\t       );\n\t\tencryptedPoolData = _newEncryptedPoolData;\n\t\temit cipherTextUpdated(_newEncryptedPoolData);\n\t}\n\n\n\t//function which can edit the cost, length, and hashrate of a given contract\n\tfunction setUpdatePurchaseInformation(\n\t\tuint _price,\n\t\tuint _limit,\n\t\tuint _speed,\n\t\tuint _length,\n\t\tuint _closeoutType\n\t) external {\n\t\trequire(msg.sender == seller, \"this is account is not authorized to update the contract parameters\");\n\t\trequire(contractState == ContractState.Running, \"this is account is not in the running state\");\n\t\trequire(_closeoutType == 2 || _closeoutType == 3, \"you can only use closeout options 2 or 3\");\n\t\tprice = _price;\n\t\tlimit = _limit;\n\t\tspeed = _speed;\n\t\tlength = _length;\n\t\tsetContractCloseOut(_closeoutType);\n\t\temit purchaseInfoUpdated();\n\t}\n\n\n\t//temporarily set buyer to seller until contract is purchased again\n\tfunction setContractVariableUpdate() internal {\n\t\tbuyer = seller;\n\t\tencryptedPoolData = \"\";\n\t\tcontractState = ContractState.Available;\n\t}\n\n\n\tfunction setContractCloseOut(uint closeOutType) public {\n\t\tif (closeOutType == 0) {\n\t\t\trequire(msg.sender == buyer || msg.sender == validator, \"this account is not authorized to trigger an early closeout\");\n\t\t\tuint durationOfContract = block.timestamp - startingBlockTimestamp;\n\t\t\tuint buyerPayOut = uint(price*uint(length-durationOfContract))/uint(length);\n\t\t\tuint sellerPayOut = price - buyerPayOut;\n\t\t\twithdrawFunds(sellerPayOut, buyerPayOut);\n\t\t\tsetContractVariableUpdate();\n\t\t\temit contractClosed();\n\t\t} else if (closeOutType == 1) {\n\t\t\tuint durationOfContract = block.timestamp - startingBlockTimestamp;\n\t\t\tuint buyerPayOut = uint(price*uint(length-durationOfContract))/uint(length);\n\t\t\trequire(msg.sender == seller, \"this account is not authorized to trigger a mid-contract closeout\");\n\t\t\tgetDepositContractHodlingsToSeller(buyerPayOut);\n\t\t} else if (closeOutType == 2 || closeOutType == 3) {\n\t\t\tuint durationOfContract = block.timestamp - startingBlockTimestamp;\n\t\t\trequire(durationOfContract >= length, \"the contract has yet to be carried to term\");\n\t\t\tif (closeOutType == 3) {\n\t\t\t\tuint buyerPayOut = 0;\n\t\t\t\tuint sellerPayOut = price;\n\t\t\t\twithdrawFunds(sellerPayOut, buyerPayOut);\n\t\t\t}\n\t\t\tsetContractVariableUpdate();\n\t\t\temit contractClosed();\n\t\t} else {\n\t\t\trequire(closeOutType < 4, \"you must make a selection between 0 and 3\");\n\t\t}\n\t}\n\n}\n\n",
  "sourcePath": "/Users/joshkean/Documents/smart_contracts/validator/contracts/Implementation.sol",
  "compiler": {
    "name": "solc",
    "version": "0.8.7+commit.e28d00a7.Emscripten.clang"
  },
  "schemaVersion": "3.4.2",
  "updatedAt": "2022-01-07T20:13:52.106Z",
  "devdoc": {
    "kind": "dev",
    "methods": {},
    "version": 1
  },
  "userdoc": {
    "kind": "user",
    "methods": {},
    "version": 1
  }
}