{
  "contractName": "Ledger",
  "abi": [
    {
      "inputs": [
        {
          "internalType": "address",
          "name": "_validator",
          "type": "address"
        }
      ],
      "stateMutability": "nonpayable",
      "type": "constructor"
    },
    {
      "inputs": [
        {
          "internalType": "address",
          "name": "_rentalContract",
          "type": "address"
        }
      ],
      "name": "setAddContractToStorage",
      "outputs": [],
      "stateMutability": "nonpayable",
      "type": "function"
    },
    {
      "inputs": [],
      "name": "getListOfContractsLedger",
      "outputs": [
        {
          "internalType": "address[]",
          "name": "",
          "type": "address[]"
        }
      ],
      "stateMutability": "view",
      "type": "function",
      "constant": true
    }
  ],
  "bytecode": "0x608060405234801561001057600080fd5b506040516104273803806104278339818101604052810190610032919061008e565b80600160006101000a81548173ffffffffffffffffffffffffffffffffffffffff021916908373ffffffffffffffffffffffffffffffffffffffff16021790555050610109565b600081519050610088816100f2565b92915050565b6000602082840312156100a4576100a36100ed565b5b60006100b284828501610079565b91505092915050565b60006100c6826100cd565b9050919050565b600073ffffffffffffffffffffffffffffffffffffffff82169050919050565b600080fd5b6100fb816100bb565b811461010657600080fd5b50565b61030f806101186000396000f3fe608060405234801561001057600080fd5b50600436106100365760003560e01c8063015e9d4b1461003b578063d70f8d6e14610057575b600080fd5b6100556004803603810190610050919061017e565b610075565b005b61005f6100db565b60405161006c9190610230565b60405180910390f35b6000819080600181540180825580915050600190039060005260206000200160009091909190916101000a81548173ffffffffffffffffffffffffffffffffffffffff021916908373ffffffffffffffffffffffffffffffffffffffff16021790555050565b6060600080548060200260200160405190810160405280929190818152602001828054801561015f57602002820191906000526020600020905b8160009054906101000a900473ffffffffffffffffffffffffffffffffffffffff1673ffffffffffffffffffffffffffffffffffffffff1681526020019060010190808311610115575b5050505050905090565b600081359050610178816102c2565b92915050565b600060208284031215610194576101936102bd565b5b60006101a284828501610169565b91505092915050565b60006101b783836101c3565b60208301905092915050565b6101cc8161028b565b82525050565b60006101dd82610262565b6101e7818561027a565b93506101f283610252565b8060005b8381101561022357815161020a88826101ab565b97506102158361026d565b9250506001810190506101f6565b5085935050505092915050565b6000602082019050818103600083015261024a81846101d2565b905092915050565b6000819050602082019050919050565b600081519050919050565b6000602082019050919050565b600082825260208201905092915050565b60006102968261029d565b9050919050565b600073ffffffffffffffffffffffffffffffffffffffff82169050919050565b600080fd5b6102cb8161028b565b81146102d657600080fd5b5056fea2646970667358221220bf978b467ac29d8faa61b61936883addd7d6085a6d8acbb753a2f2f33529515664736f6c63430008070033",
  "immutableReferences": {},
  "source": "//SPDX-License-Identifier: MIT\n\n\npragma solidity >0.8.0;\n\n/// @title Ledger\n/// @author Josh Kean (Lumerin)\n/// @notice mappings may be removed based on final form of hashrate contract\n\ncontract Ledger{\n\n  address[] rentalContracts; //dynamically allocated list of rental contracts\n  address validator;\n\n  constructor(address _validator) {\n    validator = _validator;\n  }\n\n  //function to push an address to storage and update mappings\n  //performed after a seller deploys their contract to the blockchain\n  function setAddContractToStorage(address _rentalContract) external {\n    rentalContracts.push(_rentalContract);\n  }\n\n\n  //function to return a list of all existing contracts\n  function getListOfContractsLedger() external view returns(address[] memory) {\n    return rentalContracts;\n  }\n}\n",
  "sourcePath": "/Users/joshkean/Documents/deployments/support_contracts/validator/contracts/Ledger.sol",
  "compiler": {
    "name": "solc",
    "version": "0.8.7+commit.e28d00a7.Emscripten.clang"
  },
  "schemaVersion": "3.4.2",
  "updatedAt": "2021-10-21T20:09:56.371Z",
  "networkType": "ethereum",
  "devdoc": {
    "author": "Josh Kean (Lumerin)",
    "kind": "dev",
    "methods": {},
    "title": "Ledger",
    "version": 1
  },
  "userdoc": {
    "kind": "user",
    "methods": {},
    "notice": "mappings may be removed based on final form of hashrate contract",
    "version": 1
  }
}