{
  "_format": "hh-sol-artifact-1",
  "contractName": "VestingWalletPublic",
  "sourceName": "contracts/VestingWalletClone.sol",
  "abi": [
    {
      "anonymous": false,
      "inputs": [
        {
          "indexed": true,
          "internalType": "address",
          "name": "token",
          "type": "address"
        },
        {
          "indexed": false,
          "internalType": "uint256",
          "name": "amount",
          "type": "uint256"
        }
      ],
      "name": "ERC20Released",
      "type": "event"
    },
    {
      "anonymous": false,
      "inputs": [
        {
          "indexed": false,
          "internalType": "uint256",
          "name": "amount",
          "type": "uint256"
        }
      ],
      "name": "EtherReleased",
      "type": "event"
    },
    {
      "inputs": [],
      "name": "beneficiary",
      "outputs": [
        {
          "internalType": "address",
          "name": "",
          "type": "address"
        }
      ],
      "stateMutability": "view",
      "type": "function"
    },
    {
      "inputs": [],
      "name": "duration",
      "outputs": [
        {
          "internalType": "uint256",
          "name": "",
          "type": "uint256"
        }
      ],
      "stateMutability": "view",
      "type": "function"
    },
    {
      "inputs": [
        {
          "internalType": "address",
          "name": "token",
          "type": "address"
        }
      ],
      "name": "release",
      "outputs": [],
      "stateMutability": "nonpayable",
      "type": "function"
    },
    {
      "inputs": [],
      "name": "release",
      "outputs": [],
      "stateMutability": "nonpayable",
      "type": "function"
    },
    {
      "inputs": [],
      "name": "released",
      "outputs": [
        {
          "internalType": "uint256",
          "name": "",
          "type": "uint256"
        }
      ],
      "stateMutability": "view",
      "type": "function"
    },
    {
      "inputs": [
        {
          "internalType": "address",
          "name": "token",
          "type": "address"
        }
      ],
      "name": "released",
      "outputs": [
        {
          "internalType": "uint256",
          "name": "",
          "type": "uint256"
        }
      ],
      "stateMutability": "view",
      "type": "function"
    },
    {
      "inputs": [],
      "name": "start",
      "outputs": [
        {
          "internalType": "uint256",
          "name": "",
          "type": "uint256"
        }
      ],
      "stateMutability": "view",
      "type": "function"
    },
    {
      "inputs": [
        {
          "internalType": "uint64",
          "name": "timestamp",
          "type": "uint64"
        }
      ],
      "name": "vestedAmount",
      "outputs": [
        {
          "internalType": "uint256",
          "name": "",
          "type": "uint256"
        }
      ],
      "stateMutability": "view",
      "type": "function"
    },
    {
      "inputs": [
        {
          "internalType": "address",
          "name": "token",
          "type": "address"
        },
        {
          "internalType": "uint64",
          "name": "timestamp",
          "type": "uint64"
        }
      ],
      "name": "vestedAmount",
      "outputs": [
        {
          "internalType": "uint256",
          "name": "",
          "type": "uint256"
        }
      ],
      "stateMutability": "view",
      "type": "function"
    },
    {
      "inputs": [
        {
          "internalType": "address",
          "name": "beneficiaryAddress",
          "type": "address"
        },
        {
          "internalType": "uint64",
          "name": "startTimestamp",
          "type": "uint64"
        },
        {
          "internalType": "uint64",
          "name": "durationSeconds",
          "type": "uint64"
        }
      ],
      "name": "walletInitialize",
      "outputs": [],
      "stateMutability": "nonpayable",
      "type": "function"
    }
  ],
  "bytecode": "0x60806040526000600460086101000a81548160ff02191690831515021790555034801561002b57600080fd5b5061147a8061003b6000396000f3fe608060405234801561001057600080fd5b506004361061009e5760003560e01c8063810ec23b11610066578063810ec23b1461014757806386d1a69f1461017757806396132521146101815780639852595c1461019f578063be9a6555146101cf5761009e565b80630a17b06b146100a35780630fb5a6b4146100d357806319165587146100f157806338af3eed1461010d5780637e2e1f261461012b575b600080fd5b6100bd60048036038101906100b89190610b3b565b6101ed565b6040516100ca9190610b81565b60405180910390f35b6100db610212565b6040516100e89190610b81565b60405180910390f35b61010b60048036038101906101069190610bfa565b61023a565b005b610115610315565b6040516101229190610c36565b60405180910390f35b61014560048036038101906101409190610c51565b61033f565b005b610161600480360381019061015c9190610ca4565b6104b8565b60405161016e9190610b81565b60405180910390f35b61017f610567565b005b6101896105ea565b6040516101969190610b81565b60405180910390f35b6101b960048036038101906101b49190610bfa565b6105f4565b6040516101c69190610b81565b60405180910390f35b6101d761063d565b6040516101e49190610b81565b60405180910390f35b600061020b6101fa6105ea565b476102059190610d13565b83610665565b9050919050565b6000600460009054906101000a900467ffffffffffffffff1667ffffffffffffffff16905090565b6000610245826105f4565b61024f83426104b8565b6102599190610d69565b905080600260008473ffffffffffffffffffffffffffffffffffffffff1673ffffffffffffffffffffffffffffffffffffffff16815260200190815260200160002060008282546102aa9190610d13565b925050819055508173ffffffffffffffffffffffffffffffffffffffff167fc0e523490dd523c33b1878c9eb14ff46991e3f5b2cd33710918618f2a39cba1b826040516102f79190610b81565b60405180910390a26103118261030b610315565b836106ff565b5050565b6000600360009054906101000a900473ffffffffffffffffffffffffffffffffffffffff16905090565b60001515600460089054906101000a900460ff16151514610395576040517f08c379a000000000000000000000000000000000000000000000000000000000815260040161038c90610e20565b60405180910390fd5b600073ffffffffffffffffffffffffffffffffffffffff168373ffffffffffffffffffffffffffffffffffffffff161415610405576040517f08c379a00000000000000000000000000000000000000000000000000000000081526004016103fc90610eb2565b60405180910390fd5b82600360006101000a81548173ffffffffffffffffffffffffffffffffffffffff021916908373ffffffffffffffffffffffffffffffffffffffff16021790555081600360146101000a81548167ffffffffffffffff021916908367ffffffffffffffff16021790555080600460006101000a81548167ffffffffffffffff021916908367ffffffffffffffff1602179055506001600460086101000a81548160ff021916908315150217905550505050565b600061055f6104c6846105f4565b8473ffffffffffffffffffffffffffffffffffffffff166370a08231306040518263ffffffff1660e01b81526004016104ff9190610c36565b60206040518083038186803b15801561051757600080fd5b505afa15801561052b573d6000803e3d6000fd5b505050506040513d601f19601f8201168201806040525081019061054f9190610efe565b6105599190610d13565b83610665565b905092915050565b60006105716105ea565b61057a426101ed565b6105849190610d69565b905080600160008282546105989190610d13565b925050819055507fda9d4e5f101b8b9b1c5b76d0c5a9f7923571acfc02376aa076b75a8c080c956b816040516105ce9190610b81565b60405180910390a16105e76105e1610315565b82610785565b50565b6000600154905090565b6000600260008373ffffffffffffffffffffffffffffffffffffffff1673ffffffffffffffffffffffffffffffffffffffff168152602001908152602001600020549050919050565b6000600360149054906101000a900467ffffffffffffffff1667ffffffffffffffff16905090565b600061066f61063d565b8267ffffffffffffffff16101561068957600090506106f9565b610691610212565b61069961063d565b6106a39190610d13565b8267ffffffffffffffff1611156106bc578290506106f9565b6106c4610212565b6106cc61063d565b8367ffffffffffffffff166106e19190610d69565b846106ec9190610f2b565b6106f69190610fb4565b90505b92915050565b6107808363a9059cbb60e01b848460405160240161071e929190610fe5565b604051602081830303815290604052907bffffffffffffffffffffffffffffffffffffffffffffffffffffffff19166020820180517bffffffffffffffffffffffffffffffffffffffffffffffffffffffff8381831617835250505050610879565b505050565b804710156107c8576040517f08c379a00000000000000000000000000000000000000000000000000000000081526004016107bf9061105a565b60405180910390fd5b60008273ffffffffffffffffffffffffffffffffffffffff16826040516107ee906110ab565b60006040518083038185875af1925050503d806000811461082b576040519150601f19603f3d011682016040523d82523d6000602084013e610830565b606091505b5050905080610874576040517f08c379a000000000000000000000000000000000000000000000000000000000815260040161086b90611132565b60405180910390fd5b505050565b60006108db826040518060400160405280602081526020017f5361666545524332303a206c6f772d6c6576656c2063616c6c206661696c65648152508573ffffffffffffffffffffffffffffffffffffffff166109409092919063ffffffff16565b905060008151111561093b57808060200190518101906108fb919061118a565b61093a576040517f08c379a000000000000000000000000000000000000000000000000000000000815260040161093190611229565b60405180910390fd5b5b505050565b606061094f8484600085610958565b90509392505050565b60608247101561099d576040517f08c379a0000000000000000000000000000000000000000000000000000000008152600401610994906112bb565b60405180910390fd5b6109a685610a6c565b6109e5576040517f08c379a00000000000000000000000000000000000000000000000000000000081526004016109dc90611327565b60405180910390fd5b6000808673ffffffffffffffffffffffffffffffffffffffff168587604051610a0e91906113b6565b60006040518083038185875af1925050503d8060008114610a4b576040519150601f19603f3d011682016040523d82523d6000602084013e610a50565b606091505b5091509150610a60828286610a8f565b92505050949350505050565b6000808273ffffffffffffffffffffffffffffffffffffffff163b119050919050565b60608315610a9f57829050610aef565b600083511115610ab25782518084602001fd5b816040517f08c379a0000000000000000000000000000000000000000000000000000000008152600401610ae69190611422565b60405180910390fd5b9392505050565b600080fd5b600067ffffffffffffffff82169050919050565b610b1881610afb565b8114610b2357600080fd5b50565b600081359050610b3581610b0f565b92915050565b600060208284031215610b5157610b50610af6565b5b6000610b5f84828501610b26565b91505092915050565b6000819050919050565b610b7b81610b68565b82525050565b6000602082019050610b966000830184610b72565b92915050565b600073ffffffffffffffffffffffffffffffffffffffff82169050919050565b6000610bc782610b9c565b9050919050565b610bd781610bbc565b8114610be257600080fd5b50565b600081359050610bf481610bce565b92915050565b600060208284031215610c1057610c0f610af6565b5b6000610c1e84828501610be5565b91505092915050565b610c3081610bbc565b82525050565b6000602082019050610c4b6000830184610c27565b92915050565b600080600060608486031215610c6a57610c69610af6565b5b6000610c7886828701610be5565b9350506020610c8986828701610b26565b9250506040610c9a86828701610b26565b9150509250925092565b60008060408385031215610cbb57610cba610af6565b5b6000610cc985828601610be5565b9250506020610cda85828601610b26565b9150509250929050565b7f4e487b7100000000000000000000000000000000000000000000000000000000600052601160045260246000fd5b6000610d1e82610b68565b9150610d2983610b68565b9250827fffffffffffffffffffffffffffffffffffffffffffffffffffffffffffffffff03821115610d5e57610d5d610ce4565b5b828201905092915050565b6000610d7482610b68565b9150610d7f83610b68565b925082821015610d9257610d91610ce4565b5b828203905092915050565b600082825260208201905092915050565b7f746869732066756e6374696f6e2068617320616c7265616479206265656e206360008201527f616c6c6564000000000000000000000000000000000000000000000000000000602082015250565b6000610e0a602583610d9d565b9150610e1582610dae565b604082019050919050565b60006020820190508181036000830152610e3981610dfd565b9050919050565b7f56657374696e6757616c6c65743a2062656e6566696369617279206973207a6560008201527f726f206164647265737300000000000000000000000000000000000000000000602082015250565b6000610e9c602a83610d9d565b9150610ea782610e40565b604082019050919050565b60006020820190508181036000830152610ecb81610e8f565b9050919050565b610edb81610b68565b8114610ee657600080fd5b50565b600081519050610ef881610ed2565b92915050565b600060208284031215610f1457610f13610af6565b5b6000610f2284828501610ee9565b91505092915050565b6000610f3682610b68565b9150610f4183610b68565b9250817fffffffffffffffffffffffffffffffffffffffffffffffffffffffffffffffff0483118215151615610f7a57610f79610ce4565b5b828202905092915050565b7f4e487b7100000000000000000000000000000000000000000000000000000000600052601260045260246000fd5b6000610fbf82610b68565b9150610fca83610b68565b925082610fda57610fd9610f85565b5b828204905092915050565b6000604082019050610ffa6000830185610c27565b6110076020830184610b72565b9392505050565b7f416464726573733a20696e73756666696369656e742062616c616e6365000000600082015250565b6000611044601d83610d9d565b915061104f8261100e565b602082019050919050565b6000602082019050818103600083015261107381611037565b9050919050565b600081905092915050565b50565b600061109560008361107a565b91506110a082611085565b600082019050919050565b60006110b682611088565b9150819050919050565b7f416464726573733a20756e61626c6520746f2073656e642076616c75652c207260008201527f6563697069656e74206d61792068617665207265766572746564000000000000602082015250565b600061111c603a83610d9d565b9150611127826110c0565b604082019050919050565b6000602082019050818103600083015261114b8161110f565b9050919050565b60008115159050919050565b61116781611152565b811461117257600080fd5b50565b6000815190506111848161115e565b92915050565b6000602082840312156111a05761119f610af6565b5b60006111ae84828501611175565b91505092915050565b7f5361666545524332303a204552433230206f7065726174696f6e20646964206e60008201527f6f74207375636365656400000000000000000000000000000000000000000000602082015250565b6000611213602a83610d9d565b915061121e826111b7565b604082019050919050565b6000602082019050818103600083015261124281611206565b9050919050565b7f416464726573733a20696e73756666696369656e742062616c616e636520666f60008201527f722063616c6c0000000000000000000000000000000000000000000000000000602082015250565b60006112a5602683610d9d565b91506112b082611249565b604082019050919050565b600060208201905081810360008301526112d481611298565b9050919050565b7f416464726573733a2063616c6c20746f206e6f6e2d636f6e7472616374000000600082015250565b6000611311601d83610d9d565b915061131c826112db565b602082019050919050565b6000602082019050818103600083015261134081611304565b9050919050565b600081519050919050565b60005b83811015611370578082015181840152602081019050611355565b8381111561137f576000848401525b50505050565b600061139082611347565b61139a818561107a565b93506113aa818560208601611352565b80840191505092915050565b60006113c28284611385565b915081905092915050565b600081519050919050565b6000601f19601f8301169050919050565b60006113f4826113cd565b6113fe8185610d9d565b935061140e818560208601611352565b611417816113d8565b840191505092915050565b6000602082019050818103600083015261143c81846113e9565b90509291505056fea264697066735822122050df398e51a28dc1d78bc6ae330c3593248c6441451e6f058e4a6338d44356a364736f6c63430008090033",
  "linkReferences": {},
  "deployedLinkReferences": {}
}