{
  "_format": "hh-sol-artifact-1",
  "contractName": "LumerinVestingClone",
  "sourceName": "contracts/CloneFactory.sol",
  "abi": [
    {
      "anonymous": false,
      "inputs": [
        {
          "indexed": true,
          "internalType": "address",
          "name": "token",
          "type": "address"
        },
        {
          "indexed": false,
          "internalType": "uint256",
          "name": "amount",
          "type": "uint256"
        }
      ],
      "name": "ERC20Released",
      "type": "event"
    },
    {
      "anonymous": false,
      "inputs": [
        {
          "indexed": false,
          "internalType": "uint256",
          "name": "amount",
          "type": "uint256"
        }
      ],
      "name": "EtherReleased",
      "type": "event"
    },
    {
      "inputs": [],
      "name": "beneficiary",
      "outputs": [
        {
          "internalType": "address",
          "name": "",
          "type": "address"
        }
      ],
      "stateMutability": "view",
      "type": "function"
    },
    {
      "inputs": [],
      "name": "duration",
      "outputs": [
        {
          "internalType": "uint256",
          "name": "",
          "type": "uint256"
        }
      ],
      "stateMutability": "view",
      "type": "function"
    },
    {
      "inputs": [
        {
          "internalType": "address",
          "name": "_claiment",
          "type": "address"
        },
        {
          "internalType": "address",
          "name": "_lumerin",
          "type": "address"
        },
        {
          "internalType": "uint256",
          "name": "_totalAllocation",
          "type": "uint256"
        },
        {
          "internalType": "uint256[]",
          "name": "_vestingMonths",
          "type": "uint256[]"
        },
        {
          "internalType": "uint64",
          "name": "_start",
          "type": "uint64"
        },
        {
          "internalType": "uint64",
          "name": "_duration",
          "type": "uint64"
        }
      ],
      "name": "initialize",
      "outputs": [],
      "stateMutability": "nonpayable",
      "type": "function"
    },
    {
      "inputs": [
        {
          "internalType": "address",
          "name": "token",
          "type": "address"
        }
      ],
      "name": "release",
      "outputs": [],
      "stateMutability": "nonpayable",
      "type": "function"
    },
    {
      "inputs": [],
      "name": "release",
      "outputs": [],
      "stateMutability": "nonpayable",
      "type": "function"
    },
    {
      "inputs": [
        {
          "internalType": "uint256",
          "name": "_time",
          "type": "uint256"
        }
      ],
      "name": "releaseTest",
      "outputs": [],
      "stateMutability": "nonpayable",
      "type": "function"
    },
    {
      "inputs": [],
      "name": "released",
      "outputs": [
        {
          "internalType": "uint256",
          "name": "",
          "type": "uint256"
        }
      ],
      "stateMutability": "view",
      "type": "function"
    },
    {
      "inputs": [
        {
          "internalType": "address",
          "name": "token",
          "type": "address"
        }
      ],
      "name": "released",
      "outputs": [
        {
          "internalType": "uint256",
          "name": "",
          "type": "uint256"
        }
      ],
      "stateMutability": "view",
      "type": "function"
    },
    {
      "inputs": [],
      "name": "start",
      "outputs": [
        {
          "internalType": "uint256",
          "name": "",
          "type": "uint256"
        }
      ],
      "stateMutability": "view",
      "type": "function"
    },
    {
      "inputs": [
        {
          "internalType": "uint64",
          "name": "timestamp",
          "type": "uint64"
        }
      ],
      "name": "vestedAmount",
      "outputs": [
        {
          "internalType": "uint256",
          "name": "",
          "type": "uint256"
        }
      ],
      "stateMutability": "view",
      "type": "function"
    },
    {
      "inputs": [
        {
          "internalType": "address",
          "name": "token",
          "type": "address"
        },
        {
          "internalType": "uint64",
          "name": "timestamp",
          "type": "uint64"
        }
      ],
      "name": "vestedAmount",
      "outputs": [
        {
          "internalType": "uint256",
          "name": "",
          "type": "uint256"
        }
      ],
      "stateMutability": "view",
      "type": "function"
    },
    {
      "inputs": [
        {
          "internalType": "address",
          "name": "beneficiaryAddress",
          "type": "address"
        },
        {
          "internalType": "uint64",
          "name": "startTimestamp",
          "type": "uint64"
        },
        {
          "internalType": "uint64",
          "name": "durationSeconds",
          "type": "uint64"
        }
      ],
      "name": "walletInitialize",
      "outputs": [],
      "stateMutability": "nonpayable",
      "type": "function"
    }
  ],
  "bytecode": "0x60806040526000600460086101000a81548160ff02191690831515021790555034801561002b57600080fd5b50611be28061003b6000396000f3fe608060405234801561001057600080fd5b50600436106100b45760003560e01c8063810ec23b11610071578063810ec23b1461017957806386d1a69f146101a957806396132521146101b35780639852595c146101d15780639eb2f6f114610201578063be9a65551461021d576100b4565b80630a17b06b146100b95780630fb5a6b4146100e9578063191655871461010757806327a767171461012357806338af3eed1461013f5780637e2e1f261461015d575b600080fd5b6100d360048036038101906100ce9190610f66565b61023b565b6040516100e09190610fac565b60405180910390f35b6100f1610260565b6040516100fe9190610fac565b60405180910390f35b610121600480360381019061011c9190611025565b610288565b005b61013d6004803603810190610138919061107e565b610363565b005b6101476104e8565b60405161015491906110ba565b60405180910390f35b610177600480360381019061017291906110d5565b610512565b005b610193600480360381019061018e9190611128565b61068b565b6040516101a09190610fac565b60405180910390f35b6101b161073a565b005b6101bb6107bd565b6040516101c89190610fac565b60405180910390f35b6101eb60048036038101906101e69190611025565b6107c7565b6040516101f89190610fac565b60405180910390f35b61021b600480360381019061021691906112c1565b610810565b005b6102256109a5565b6040516102329190610fac565b60405180910390f35b60006102596102486107bd565b476102539190611399565b836109cd565b9050919050565b6000600460009054906101000a900467ffffffffffffffff1667ffffffffffffffff16905090565b6000610293826107c7565b61029d834261068b565b6102a791906113ef565b905080600260008473ffffffffffffffffffffffffffffffffffffffff1673ffffffffffffffffffffffffffffffffffffffff16815260200190815260200160002060008282546102f89190611399565b925050819055508173ffffffffffffffffffffffffffffffffffffffff167fc0e523490dd523c33b1878c9eb14ff46991e3f5b2cd33710918618f2a39cba1b826040516103459190610fac565b60405180910390a261035f826103596104e8565b83610aa0565b5050565b6000610390600860009054906101000a900473ffffffffffffffffffffffffffffffffffffffff166107c7565b6103bc600860009054906101000a900473ffffffffffffffffffffffffffffffffffffffff168461068b565b6103c691906113ef565b90508060026000600860009054906101000a900473ffffffffffffffffffffffffffffffffffffffff1673ffffffffffffffffffffffffffffffffffffffff1673ffffffffffffffffffffffffffffffffffffffff16815260200190815260200160002060008282546104399190611399565b92505081905550600860009054906101000a900473ffffffffffffffffffffffffffffffffffffffff1673ffffffffffffffffffffffffffffffffffffffff167fc0e523490dd523c33b1878c9eb14ff46991e3f5b2cd33710918618f2a39cba1b826040516104a89190610fac565b60405180910390a26104e4600860009054906101000a900473ffffffffffffffffffffffffffffffffffffffff166104de6104e8565b83610aa0565b5050565b6000600360009054906101000a900473ffffffffffffffffffffffffffffffffffffffff16905090565b60001515600460089054906101000a900460ff16151514610568576040517f08c379a000000000000000000000000000000000000000000000000000000000815260040161055f906114a6565b60405180910390fd5b600073ffffffffffffffffffffffffffffffffffffffff168373ffffffffffffffffffffffffffffffffffffffff1614156105d8576040517f08c379a00000000000000000000000000000000000000000000000000000000081526004016105cf90611538565b60405180910390fd5b82600360006101000a81548173ffffffffffffffffffffffffffffffffffffffff021916908373ffffffffffffffffffffffffffffffffffffffff16021790555081600360146101000a81548167ffffffffffffffff021916908367ffffffffffffffff16021790555080600460006101000a81548167ffffffffffffffff021916908367ffffffffffffffff1602179055506001600460086101000a81548160ff021916908315150217905550505050565b6000610732610699846107c7565b8473ffffffffffffffffffffffffffffffffffffffff166370a08231306040518263ffffffff1660e01b81526004016106d291906110ba565b60206040518083038186803b1580156106ea57600080fd5b505afa1580156106fe573d6000803e3d6000fd5b505050506040513d601f19601f82011682018060405250810190610722919061156d565b61072c9190611399565b836109cd565b905092915050565b60006107446107bd565b61074d4261023b565b61075791906113ef565b9050806001600082825461076b9190611399565b925050819055507fda9d4e5f101b8b9b1c5b76d0c5a9f7923571acfc02376aa076b75a8c080c956b816040516107a19190610fac565b60405180910390a16107ba6107b46104e8565b82610b26565b50565b6000600154905090565b6000600260008373ffffffffffffffffffffffffffffffffffffffff1673ffffffffffffffffffffffffffffffffffffffff168152602001908152602001600020549050919050565b600060019054906101000a900460ff166108385760008054906101000a900460ff1615610841565b610840610c1a565b5b610880576040517f08c379a00000000000000000000000000000000000000000000000000000000081526004016108779061160c565b60405180910390fd5b60008060019054906101000a900460ff1615905080156108d0576001600060016101000a81548160ff02191690831515021790555060016000806101000a81548160ff0219169083151502179055505b86600760006101000a81548173ffffffffffffffffffffffffffffffffffffffff021916908373ffffffffffffffffffffffffffffffffffffffff16021790555085600860006101000a81548173ffffffffffffffffffffffffffffffffffffffff021916908373ffffffffffffffffffffffffffffffffffffffff16021790555084600681905550836005908051906020019061096f929190610ea8565b5061097b878484610512565b801561099c5760008060016101000a81548160ff0219169083151502179055505b50505050505050565b6000600360149054906101000a900467ffffffffffffffff1667ffffffffffffffff16905090565b60006109d76109a5565b8267ffffffffffffffff1610156109f15760009050610a9a565b6109f9610260565b610a016109a5565b610a0b9190611399565b8267ffffffffffffffff1610610a2357829050610a9a565b60005b60058054905081108015610a62575060058181548110610a4957610a4861162c565b5b90600052602060002001548367ffffffffffffffff1610155b15610a7a578080610a729061165b565b915050610a26565b6005805490508185610a8c91906116a4565b610a96919061172d565b9150505b92915050565b610b218363a9059cbb60e01b8484604051602401610abf92919061175e565b604051602081830303815290604052907bffffffffffffffffffffffffffffffffffffffffffffffffffffffff19166020820180517bffffffffffffffffffffffffffffffffffffffffffffffffffffffff8381831617835250505050610c2b565b505050565b80471015610b69576040517f08c379a0000000000000000000000000000000000000000000000000000000008152600401610b60906117d3565b60405180910390fd5b60008273ffffffffffffffffffffffffffffffffffffffff1682604051610b8f90611824565b60006040518083038185875af1925050503d8060008114610bcc576040519150601f19603f3d011682016040523d82523d6000602084013e610bd1565b606091505b5050905080610c15576040517f08c379a0000000000000000000000000000000000000000000000000000000008152600401610c0c906118ab565b60405180910390fd5b505050565b6000610c2530610cf2565b15905090565b6000610c8d826040518060400160405280602081526020017f5361666545524332303a206c6f772d6c6576656c2063616c6c206661696c65648152508573ffffffffffffffffffffffffffffffffffffffff16610d159092919063ffffffff16565b9050600081511115610ced5780806020019051810190610cad9190611903565b610cec576040517f08c379a0000000000000000000000000000000000000000000000000000000008152600401610ce3906119a2565b60405180910390fd5b5b505050565b6000808273ffffffffffffffffffffffffffffffffffffffff163b119050919050565b6060610d248484600085610d2d565b90509392505050565b606082471015610d72576040517f08c379a0000000000000000000000000000000000000000000000000000000008152600401610d6990611a34565b60405180910390fd5b610d7b85610cf2565b610dba576040517f08c379a0000000000000000000000000000000000000000000000000000000008152600401610db190611aa0565b60405180910390fd5b6000808673ffffffffffffffffffffffffffffffffffffffff168587604051610de39190611b2f565b60006040518083038185875af1925050503d8060008114610e20576040519150601f19603f3d011682016040523d82523d6000602084013e610e25565b606091505b5091509150610e35828286610e41565b92505050949350505050565b60608315610e5157829050610ea1565b600083511115610e645782518084602001fd5b816040517f08c379a0000000000000000000000000000000000000000000000000000000008152600401610e989190611b8a565b60405180910390fd5b9392505050565b828054828255906000526020600020908101928215610ee4579160200282015b82811115610ee3578251825591602001919060010190610ec8565b5b509050610ef19190610ef5565b5090565b5b80821115610f0e576000816000905550600101610ef6565b5090565b6000604051905090565b600080fd5b600080fd5b600067ffffffffffffffff82169050919050565b610f4381610f26565b8114610f4e57600080fd5b50565b600081359050610f6081610f3a565b92915050565b600060208284031215610f7c57610f7b610f1c565b5b6000610f8a84828501610f51565b91505092915050565b6000819050919050565b610fa681610f93565b82525050565b6000602082019050610fc16000830184610f9d565b92915050565b600073ffffffffffffffffffffffffffffffffffffffff82169050919050565b6000610ff282610fc7565b9050919050565b61100281610fe7565b811461100d57600080fd5b50565b60008135905061101f81610ff9565b92915050565b60006020828403121561103b5761103a610f1c565b5b600061104984828501611010565b91505092915050565b61105b81610f93565b811461106657600080fd5b50565b60008135905061107881611052565b92915050565b60006020828403121561109457611093610f1c565b5b60006110a284828501611069565b91505092915050565b6110b481610fe7565b82525050565b60006020820190506110cf60008301846110ab565b92915050565b6000806000606084860312156110ee576110ed610f1c565b5b60006110fc86828701611010565b935050602061110d86828701610f51565b925050604061111e86828701610f51565b9150509250925092565b6000806040838503121561113f5761113e610f1c565b5b600061114d85828601611010565b925050602061115e85828601610f51565b9150509250929050565b600080fd5b6000601f19601f8301169050919050565b7f4e487b7100000000000000000000000000000000000000000000000000000000600052604160045260246000fd5b6111b68261116d565b810181811067ffffffffffffffff821117156111d5576111d461117e565b5b80604052505050565b60006111e8610f12565b90506111f482826111ad565b919050565b600067ffffffffffffffff8211156112145761121361117e565b5b602082029050602081019050919050565b600080fd5b600061123d611238846111f9565b6111de565b905080838252602082019050602084028301858111156112605761125f611225565b5b835b8181101561128957806112758882611069565b845260208401935050602081019050611262565b5050509392505050565b600082601f8301126112a8576112a7611168565b5b81356112b884826020860161122a565b91505092915050565b60008060008060008060c087890312156112de576112dd610f1c565b5b60006112ec89828a01611010565b96505060206112fd89828a01611010565b955050604061130e89828a01611069565b945050606087013567ffffffffffffffff81111561132f5761132e610f21565b5b61133b89828a01611293565b935050608061134c89828a01610f51565b92505060a061135d89828a01610f51565b9150509295509295509295565b7f4e487b7100000000000000000000000000000000000000000000000000000000600052601160045260246000fd5b60006113a482610f93565b91506113af83610f93565b9250827fffffffffffffffffffffffffffffffffffffffffffffffffffffffffffffffff038211156113e4576113e361136a565b5b828201905092915050565b60006113fa82610f93565b915061140583610f93565b9250828210156114185761141761136a565b5b828203905092915050565b600082825260208201905092915050565b7f746869732066756e6374696f6e2068617320616c7265616479206265656e206360008201527f616c6c6564000000000000000000000000000000000000000000000000000000602082015250565b6000611490602583611423565b915061149b82611434565b604082019050919050565b600060208201905081810360008301526114bf81611483565b9050919050565b7f56657374696e6757616c6c65743a2062656e6566696369617279206973207a6560008201527f726f206164647265737300000000000000000000000000000000000000000000602082015250565b6000611522602a83611423565b915061152d826114c6565b604082019050919050565b6000602082019050818103600083015261155181611515565b9050919050565b60008151905061156781611052565b92915050565b60006020828403121561158357611582610f1c565b5b600061159184828501611558565b91505092915050565b7f496e697469616c697a61626c653a20636f6e747261637420697320616c72656160008201527f647920696e697469616c697a6564000000000000000000000000000000000000602082015250565b60006115f6602e83611423565b91506116018261159a565b604082019050919050565b60006020820190508181036000830152611625816115e9565b9050919050565b7f4e487b7100000000000000000000000000000000000000000000000000000000600052603260045260246000fd5b600061166682610f93565b91507fffffffffffffffffffffffffffffffffffffffffffffffffffffffffffffffff8214156116995761169861136a565b5b600182019050919050565b60006116af82610f93565b91506116ba83610f93565b9250817fffffffffffffffffffffffffffffffffffffffffffffffffffffffffffffffff04831182151516156116f3576116f261136a565b5b828202905092915050565b7f4e487b7100000000000000000000000000000000000000000000000000000000600052601260045260246000fd5b600061173882610f93565b915061174383610f93565b925082611753576117526116fe565b5b828204905092915050565b600060408201905061177360008301856110ab565b6117806020830184610f9d565b9392505050565b7f416464726573733a20696e73756666696369656e742062616c616e6365000000600082015250565b60006117bd601d83611423565b91506117c882611787565b602082019050919050565b600060208201905081810360008301526117ec816117b0565b9050919050565b600081905092915050565b50565b600061180e6000836117f3565b9150611819826117fe565b600082019050919050565b600061182f82611801565b9150819050919050565b7f416464726573733a20756e61626c6520746f2073656e642076616c75652c207260008201527f6563697069656e74206d61792068617665207265766572746564000000000000602082015250565b6000611895603a83611423565b91506118a082611839565b604082019050919050565b600060208201905081810360008301526118c481611888565b9050919050565b60008115159050919050565b6118e0816118cb565b81146118eb57600080fd5b50565b6000815190506118fd816118d7565b92915050565b60006020828403121561191957611918610f1c565b5b6000611927848285016118ee565b91505092915050565b7f5361666545524332303a204552433230206f7065726174696f6e20646964206e60008201527f6f74207375636365656400000000000000000000000000000000000000000000602082015250565b600061198c602a83611423565b915061199782611930565b604082019050919050565b600060208201905081810360008301526119bb8161197f565b9050919050565b7f416464726573733a20696e73756666696369656e742062616c616e636520666f60008201527f722063616c6c0000000000000000000000000000000000000000000000000000602082015250565b6000611a1e602683611423565b9150611a29826119c2565b604082019050919050565b60006020820190508181036000830152611a4d81611a11565b9050919050565b7f416464726573733a2063616c6c20746f206e6f6e2d636f6e7472616374000000600082015250565b6000611a8a601d83611423565b9150611a9582611a54565b602082019050919050565b60006020820190508181036000830152611ab981611a7d565b9050919050565b600081519050919050565b60005b83811015611ae9578082015181840152602081019050611ace565b83811115611af8576000848401525b50505050565b6000611b0982611ac0565b611b1381856117f3565b9350611b23818560208601611acb565b80840191505092915050565b6000611b3b8284611afe565b915081905092915050565b600081519050919050565b6000611b5c82611b46565b611b668185611423565b9350611b76818560208601611acb565b611b7f8161116d565b840191505092915050565b60006020820190508181036000830152611ba48184611b51565b90509291505056fea264697066735822122034a7c63fd20f9c1346fa53545b8cf4fc80296fa13f529f34e3053aff42bede3f64736f6c63430008090033",
  "linkReferences": {},
  "deployedLinkReferences": {}
}